:100000000C9447010C946F010C946F010C946F01D8
:100010000C946F010C946F010C946F010C946F01A0
:100020000C946F010C946F010C946F010C946F0190
:100030000C946F010C946F010C946F010C946F0180
:100040000C94D4030C946F010C9434080C94820823
:100050000C946F010C946F010C946F010C946F0160
:100060000C946F010C946F010A0B0C0D0E0F111202
:1000700013141516000102030405CF01D501DB019D
:10008000E301EC01F601FF0106020E0215021C025B
:100090002302504120506F77657209203D2025537F
:1000A0000D0A00435243204C656E67746809203D79
:1000B0002025530D0A004D6F64656C0909203D2011
:1000C00025530D0A00446174612052617465092052
:1000D0003D2025530D0A0044594E50442F464541BA
:1000E0005455524500434F4E4649470052465F53D0
:1000F000455455500052465F434800454E5F5258A4
:100100004144445200454E5F41410052585F5057B0
:100110005F50302D360054585F41444452005258CD
:100120005F414444525F50322D350052585F414484
:1001300044525F50302D31000D0A002530327800D6
:10014000203078002553092563203D000D0A00204A
:10015000307825303278002553092563203D004F43
:100160004253455256455F54583D253032783A2027
:10017000504F4C535F434E543D2578204152435FCE
:10018000434E543D25780D0A0053544154555309AC
:1001900009203D203078253032782052585F445273
:1001A0003D25782054585F44533D2578204D4158D3
:1001B0005F52543D25782052585F505F4E4F3D2589
:1001C000782054585F46554C4C3D25780D0A003137
:1001D0004D42505300324D425053003235304B4265
:1001E0005053006E524632344C3031006E5246321B
:1001F000344C30312B0044697361626C65640038A3
:100200002062697473003136206269747300504152
:100210005F4D494E0050415F4C4F57004C415F4D80
:1002200045440050415F4849474800000000002411
:100230000027002A0000000000250028002B0000F5
:100240000000002300260029000404040404040420
:100250000402020202020203030303030301020475
:100260000810204080010204081020010204081038
:100270002000000007000201000003040600000047
:10028000000000000000EC01C302EE09E5011124AA
:100290001FBECFEFD8E0DEBFCDBF11E0A0E0B1E0E0
:1002A000E0E7F8E202C005900D92A234B107D9F759
:1002B00012E0A2E4B1E001C01D92A131B107E1F763
:1002C00012E0CCE8D2E004C02297FE010E9427147D
:1002D000C638D107C9F70E9424080C9498010C94E1
:1002E00000001F93FC0199278827BC01E894119115
:1002F0001032E9F3193010F01E30C8F31B3251F000
:100300001D3249F4689406C00E94B601610F711D48
:10031000811D911D119110531A30B0F33EF4909548
:100320008095709561957F4F8F4F9F4F1F910895D6
:10033000F8940C942B14FB01DC0102C001900D9287
:1003400041505040D8F70895FC018191861721F063
:100350008823D9F7992708953197CF010895FB0194
:10036000DC0101900D920020E1F70895592F482FEC
:10037000372F262F660F771F881F991F660F771F4D
:10038000881F991F620F731F841F951F660F771FA9
:10039000881F991F089580E191E0089581309105AB
:1003A00051F46F5F7F4F81F482E491E060E071E08F
:1003B0000E948D070895892B39F46F5F7F4F21F4D8
:1003C00082E491E00E941E08089580E090E06FEFC3
:1003D0007FEF0E94CE01089581E090E06FEF7FEF04
:1003E0000E94CE010895EF92FF920F931F93DF9327
:1003F000CF93CDB7DEB7A3970FB6F894DEBF0FBE8D
:10040000CDBF8BEE91E00E944409892B81F08BEEE9
:1004100091E00E947509682F8E3221F481E080936B
:10042000490105C082E491E00E944707EACF80912C
:100430004901882309F491C082E491E060E20E94BE
:10044000DF069C018E010F5F1F4FC80162E471E05F
:1004500040E050E00E94C007C8010E94B0060E9420
:10046000C91260931001709311018093120190934F
:100470001301C8010E941E0882E491E060E20E941C
:10048000DF0628E0E22EF12CEC0EFD1EAC014F5FE2
:100490005F4F2091460130914701C70162E471E04E
:1004A0000E94C007C70160E20E94DF069C018E0126
:1004B000015F1F4FC801B70140E050E00E94C00734
:1004C000C8010E94B0060E94C91260931401709383
:1004D00015018093160190931701C8010E941E0810
:1004E000C70160E20E94DF068E010A5E1F4FAC0169
:1004F0004F5F5F4F2C853D85C801B7010E94C00743
:10050000C701B8010E940708C8010E941E088E0199
:10051000035E1F4F2C853D85C801B70140E050E0C8
:100520000E94C007C8010E94B0060E94C9126093D1
:1005300018017093190180931A0190931B01C8014F
:100540000E941E0882E491E060E071E00E94A7072B
:1005500010924901C7010E941E08A3960FB6F89495
:10056000DEBF0FBECDBFCF91DF911F910F91FF90E6
:10057000EF9008958BEE91E040E052EC61E070E086
:100580000E94BD0808958AE491E068E04AE00E9474
:10059000440A0895CF92DF92EF92FF920F931F9338
:1005A000DF93CF93CDB7DEB72C970FB6F894DEBFAD
:1005B0000FBECDBF0E94CB018C010E941C04209174
:1005C0001C0130911D0140911E0150911F016217C5
:1005D00073078407950708F496C08AE491E00E94A7
:1005E000DA0A8AE491E0B8014CE00E948D0E8AE4B8
:1005F00091E00E94D70D0E941C046B017C0110E069
:100600008AE491E00E94070C8823B1F4112309F0D9
:1006100067C00E941C046C197D098E099F0965360C
:1006200071058105910508F011E061E070E080E05E
:1006300090E00E942A04E4CF112309F051C0DE01AA
:100640001196E6E2F1E08CE001900D928150E1F725
:100650008AE491E0BE016F5F7F4F4CE00E948C0DF9
:1006600049815A816B817C818BEE91E022E030E000
:100670000E94AD068BEE91E060E20E94F2044D8193
:100680005E816F8178858BEE91E022E030E00E9400
:10069000AD068BEE91E060E20E94F20449855A8536
:1006A0006B857C858BEE91E022E030E00E94AD0608
:1006B0008BEE91E060E20E94F2040E941C04AB0108
:1006C000BC014C195D096E097F098BEE91E02AE0AF
:1006D00030E00E947A058BEE91E06AE00E94F2041D
:1006E00080911C0190911D01A0911E01B0911F01EC
:1006F000C296A11DB11D80931C0190931D01A09372
:100700001E01B0931F012C960FB6F894DEBF0FBEEA
:10071000CDBFCF91DF911F910F91FF90EF90DF90B0
:10072000CF900895CF92DF92EF92FF920F931F9395
:100730004AE4C42E41E0D42EC6010E94110EC60127
:1007400060E04FE00E94990BC6016CE00E94570ADE
:10075000C60101EE10EF20EF30EF40EF50E060E017
:1007600070E00E94410CC60161E032EDE32E20EF03
:10077000F22E00EF20EF30E040E050E00E940D0D3F
:10078000C6010E94D70D1F910F91FF90EF90DF904F
:10079000CF9008950E94F3010E94CA0208950E941A
:1007A000BA020E94920308951F920F920FB60F9201
:1007B00011242F933F938F939F93AF93BF93809177
:1007C0005E0190915F01A0916001B0916101309153
:1007D00062010196A11DB11D232F2D5F2D3720F041
:1007E0002D570196A11DB11D2093620180935E01DA
:1007F00090935F01A0936001B093610180915A01D1
:1008000090915B01A0915C01B0915D010196A11DE9
:10081000B11D80935A0190935B01A0935C01B0934A
:100820005D01BF91AF919F918F913F912F910F905B
:100830000FBE0F901F9018958FB7F89420915E010E
:1008400030915F0140916001509161018FBFB9010A
:10085000CA0108959B01AC017FB7F89480915A01B9
:1008600090915B01A0915C01B0915D0166B5A89B80
:1008700005C06F3F19F00196A11DB11D7FBFBA2FB2
:10088000A92F982F8827860F911DA11DB11D62E009
:10089000880F991FAA1FBB1F6A95D1F7BC012DC0F5
:1008A000FFB7F89480915A0190915B01A0915C018F
:1008B000B0915D01E6B5A89B05C0EF3F19F0019628
:1008C000A11DB11DFFBFBA2FA92F982F88278E0F0A
:1008D000911DA11DB11DE2E0880F991FAA1FBB1F2A
:1008E000EA95D1F7861B970B885E9340C8F221509A
:1008F00030404040504068517C4F21153105410542
:10090000510571F60895019739F0880F991F880FE6
:10091000991F02970197F1F70895789484B5826042
:1009200084BD84B5816084BD85B5826085BD85B593
:10093000816085BDEEE6F0E0808181608083E1E842
:10094000F0E010828081826080838081816080837A
:10095000E0E8F0E0808181608083E1EBF0E080817D
:1009600084608083E0EBF0E0808181608083EAE74F
:10097000F0E08081846080838081826080838081D8
:10098000816080838081806880831092C100089597
:10099000CF92DF92EF92FF920F931F93CF93DF934B
:1009A0007C016B018A01C0E0D0E00FC0D6016D91DF
:1009B0006D01D701ED91FC910190F081E02DC7010F
:1009C0000995C80FD91F015010400115110571F785
:1009D000CE01DF91CF911F910F91FF90EF90DF90AB
:1009E000CF900895DC01ED91FC910190F081E02D14
:1009F00009950895CF93DF93EC016115710519F402
:100A000020E030E00FC0DB010D900020E9F71197E6
:100A1000A61BB70BE881F9810280F381E02DAD01BF
:100A200009959C01C901DF91CF9108954F925F9282
:100A30007F928F929F92AF92BF92CF92DF92EF926E
:100A4000FF920F931F93DF93CF93CDB7DEB7A1979C
:100A50000FB6F894DEBF0FBECDBF2C01742ECB01B4
:100A6000223008F42AE019A231E2C32ED12CCC0E98
:100A7000DD1E822E9924AA24BB24672D752FA50183
:100A800094010E94031479018A01C801B701A501EC
:100A900094010E94E413472D461B0894C108D10815
:100AA0004A3014F4405D01C0495CF6014083E11412
:100AB000F1040105110521F07E2C5F2DC801DDCF69
:100AC000C201B6010E94FA04A1960FB6F894DEBFE7
:100AD0000FBECDBFCF91DF911F910F91FF90EF908F
:100AE000DF90CF90BF90AF909F908F907F905F905E
:100AF0004F900895DC012115310541F4ED91FC91F1
:100B00000190F081E02D642F099508950E9416054B
:100B10000895CF92DF92EF92FF920F931F93CF939E
:100B2000DF93EC016A017B012115310541F4E88175
:100B3000F9810190F081E02D642F09951FC02A30C2
:100B40003105D1F477FF17C0E881F9810190F08178
:100B5000E02D6DE209958C0144275527BA014C1907
:100B60005D096E097F09CE012AE00E9416059801F1
:100B7000280F391F04C02AE00E9416059C01C901F4
:100B8000DF91CF911F910F91FF90EF90DF90CF9069
:100B900008957F928F929F92AF92BF92CF92DF92F1
:100BA000EF92FF920F931F93CF93DF934C017A0143
:100BB0008B01722ECB01BA01A80197010E94E013AC
:100BC000882321F0C40161E071E021C0C0E0D0E0E1
:100BD00057016801E894D7F8C601B5012FEF3FEF40
:100BE0004FE75FE70E94E013882351F4C601B50187
:100BF0002FEF3FEF4FE75FE70E942A12181614F01D
:100C0000C1E0D0E0219739F0C40165E071E00E94B5
:100C1000FA04EC0193C0C801B7012FEF3FEF4FE793
:100C20005FE40E947913181654F0C801B7012FEF42
:100C30003FEF4FE75FEC0E942A12882324F4C4019F
:100C400069E071E0E4CFC801B70120E030E040E0A6
:100C500050E00E942A1287FD03C0C0E0D0E00EC021
:100C6000D401ED91FC910190F081E02DC4016DE281
:100C70000995EC0117FB109517F9109520E030E06D
:100C800040E05FE3DD240BC0CA01B90120E030E0A1
:100C900040E251E40E942E129B01AC01D394D71480
:100CA00098F3C801B7010E94C6115B016C010E9454
:100CB0009B127B018C01C401B801A7012AE030E03E
:100CC0000E947A05C80FD91F772039F0C4016DE062
:100CD00071E00E94FA04C80FD91FC801B7010E9431
:100CE000C7129B01AC01C601B5010E94C51124C009
:100CF00020E030E040E251E40E947D137B018C0152
:100D00000E9496125B016C01CC24B7FCC094DC2CD1
:100D1000C401B601A5012AE030E00E948905C80F90
:100D2000D91FC601B5010E94C9129B01AC01C801BF
:100D3000B7010E94C5117A947720D1F6CE01DF91D8
:100D4000CF911F910F91FF90EF90DF90CF90BF90C8
:100D5000AF909F908F907F9008950E94C90508954D
:100D6000FC0180819181009729F420E030E040E08F
:100D700050E004C00E9471019B01AC01B901CA019D
:100D80000895CF93DF93FC0184819581481759071B
:100D900068F4C081D181772767FD7095CE01840FFB
:100DA000951F0E94A4019C01009719F42FEF3FEFBB
:100DB00002C02C1B3D0BC901DF91CF91089540E08B
:100DC00050E00E94C10608950F931F93CF93DF93C5
:100DD000EC018B016F5F7F4F888199810E94790FB1
:100DE000009711F480E005C0998388831B830A83F0
:100DF00081E0DF91CF911F910F910895CF93DF9301
:100E0000EC0188819981892B29F08A819B81861741
:100E1000970760F4CE010E94E406882341F08C819C
:100E20009D81892B19F4E881F981108281E0DF919D
:100E3000CF910895EF92FF920F931F93CF93DF937B
:100E4000EC017B016C817D81E114F104C1F041155D
:100E5000510599F08A01060F171FB8010E94FE067E
:100E6000882369F0888199812C813D81820F931FAD
:100E7000B7010E94AF011D830C8381E001C080E0B7
:100E8000DF91CF911F910F91FF90EF900895DF9325
:100E9000CF9300D0CDB7DEB769831A82BE016F5FF2
:100EA0007F4F41E050E00E941A070F900F90CF91C2
:100EB000DF910895CF93DF93EC01888199810097AA
:100EC00011F00E94F710198218821D821C821B8269
:100ED0001A82DF91CF910895EF92FF920F931F93A3
:100EE000CF93DF93EC017B018A01BA010E94FE06D9
:100EF000882321F4CE010E945A0707C01D830C836A
:100F000088819981B7010E94AF01CE01DF91CF9115
:100F10001F910F91FF90EF900895CF93DF93EC0115
:100F2000198218821B821A821D821C821E82611500
:100F3000710551F0DB010D900020E9F71197A61B18
:100F4000B70BAD010E946C07DF91CF9108950F930D
:100F50001F93182F092F6115710559F0DB010D90B2
:100F60000020E9F71197A61BB70BAD010E946C0793
:100F700002C00E945A07812F902F1F910F91089550
:100F8000BF92CF92DF92EF92FF920F931F93CF9376
:100F9000DF93082FB92E6B017A01E9012417350779
:100FA00010F4EA017901802F9B2D6FE071E00E941F
:100FB0008D07D60114968D919C9115978E159F05DE
:100FC000D0F08C179D0708F4EC01D601ED91FC914F
:100FD0001197EC0FFD1F108110826D917C916E0DA9
:100FE0007F1D802F9B2D0E94A707D601ED91FC91BC
:100FF000EC0FFD1F1083802F9B2DDF91CF911F9150
:101000000F91FF90EF90DF90CF90BF900895CF9316
:10101000DF93EC01FB018617970761F06081718116
:101020006115710529F0448155810E946C0702C049
:101030000E945A07CE01DF91CF910895FC01808173
:1010400091810E94F7100895CF93DF930E948D0441
:101050000E94CF03CFE6D8E00E94CA032097E1F3B5
:101060000E946F08F9CF08951F920F920FB60F924A
:1010700011242F933F934F938F939F93EF93FF935D
:101080008091C00082FD1DC04091C6002091A30147
:101090003091A4012F5F3F4F2F7330708091A501D5
:1010A0009091A6012817390771F0E091A301F09102
:1010B000A401ED59FE4F40833093A4012093A30176
:1010C00002C08091C600FF91EF919F918F914F9147
:1010D0003F912F910F900FBE0F901F901895E091A8
:1010E000F701F091F801E05CFF4F8191919120812F
:1010F0003181821B930B8F739070892B11F00E94AA
:10110000330808951F920F920FB60F9211242F9358
:101110003F938F939F93EF93FF932091E70130913B
:10112000E8018091E9019091EA012817390731F42B
:101130008091C1008F7D8093C10014C0E091E901CE
:10114000F091EA01E955FE4F20818091E9019091EB
:10115000EA0101968F7390709093EA018093E90100
:101160002093C600FF91EF919F918F913F912F9116
:101170000F900FBE0F901F901895AF92BF92DF9205
:10118000EF92FF920F931F93CF93DF93EC017A01BD
:101190008B01DD24403081EE580780E0680780E055
:1011A000780711F0DD24D39491E0A92EB12CEC89BD
:1011B000FD89DD2069F0C50108A002C0880F991FD4
:1011C0000A94E2F7808360E079E08DE390E005C067
:1011D000108260E874E88EE190E0A80197010E9417
:1011E0000314215030404040504056954795379564
:1011F000279580E12030380720F0DD2011F0DD2434
:10120000D6CFE889F9893083EA89FB89208319A23E
:10121000EE89FF89408121E030E0C9010C8C02C0D9
:10122000880F991F0A94E2F7482B4083EE89FF89C3
:101230004081C9010D8C02C0880F991F0A94E2F702
:10124000482B4083EE89FF894081C9010E8C02C082
:10125000880F991F0A94E2F7482B4083EE89FF8993
:1012600080810F8C02C0220F331F0A94E2F7209571
:1012700028232083DF91CF911F910F91FF90EF9052
:10128000DF90BF90AF900895DC011C96ED91FC912A
:101290001D97E05CFF4F2191319180819181281B46
:1012A000390B2F733070C9010895DC011C96ED9144
:1012B000FC911D97E05CFF4F20813181E054F040AC
:1012C000DF01AE5BBF4F8D919C91119728173907B5
:1012D00019F42FEF3FEF07C08D919C91E80FF91F94
:1012E0008081282F30E0C9010895DC011C96ED9122
:1012F000FC911D97E05CFF4F20813181E054F0406C
:10130000DF01AE5BBF4F8D919C9111972817390774
:1013100019F42FEF3FEF10C08D919C911197E80FBA
:10132000F91F20818D919C91119701968F73907078
:1013300011969C938E9330E0C9010895DC0191963B
:101340008C919197882339F05496ED91FC915597A3
:10135000808186FFF9CF91961C920895CF93DF93F9
:10136000EC01EE85FF85E05CFF4F20813181E05488
:10137000F0402F5F3F4F2F733070DF01AE5BBF4FE8
:101380008D919C91119728173907D1F3E05CFF4F9D
:1013900080819181E054F040E80FF91F6083EE8571
:1013A000FF85E05CFF4F31832083EE89FF89208138
:1013B00081E090E00F8C02C0880F991F0A94E2F739
:1013C000282B208381E089A3EC89FD8980818064BA
:1013D000808381E090E0DF91CF9108951092EE013B
:1013E0001092ED0188EE93E0A0E0B0E08093EF0171
:1013F0009093F001A093F101B093F20186E391E0A4
:101400009093EC018093EB0183E691E09093F801D7
:101410008093F70187EA91E09093FA018093F901B4
:1014200085EC90E09093FC018093FB0184EC90E0CC
:101430009093FE018093FD0180EC90E09093000278
:101440008093FF0181EC90E090930202809301026F
:1014500082EC90E0909304028093030286EC90E08B
:10146000909306028093050284E08093070283E054
:101470008093080287E08093090285E080930A0246
:1014800081E080930B020895FC016083418381E039
:101490008283138280E284831582168210861186ED
:1014A0001286138614861586168617860895FC0103
:1014B000613208F060E264830895FF920F931F93F6
:1014C0008C01F62E81E00E948F1180E00E9498111D
:1014D00080E00E949D11F80181816F2D0E94250FEF
:1014E0001F910F91FF9008951F93CF93DF93EC010D
:1014F00060E070E00E945D0A80E68EBD0DB407FEDC
:10150000FDCF8EB58FEF8EBD0DB407FEFDCF1EB59E
:10151000CE0161E070E00E945D0A812FDF91CF91E2
:101520001F9108951F93CF93DF93EC0160E070E06B
:101530000E945D0A8FEF8EBD0DB407FEFDCF1EB574
:10154000CE0161E070E00E945D0A812FDF91CF91B2
:101550001F9108951F93CF93DF93EC0160E070E03B
:101560000E945D0A81EE8EBD0DB407FEFDCF1EB553
:10157000CE0161E070E00E945D0A812FDF91CF9182
:101580001F9108951F93CF93DF93EC0160E070E00B
:101590000E945D0A82EE8EBD0DB407FEFDCF1EB522
:1015A000CE0161E070E00E945D0A812FDF91CF9152
:1015B0001F9108950F931F938C01FC01808160E0BF
:1015C0000E94250FC8010E94AA0AC8010E94C20AEF
:1015D0001F910F910895EF92FF920F931F93CF9356
:1015E000DF93EC01F62EE72E9C81142F941708F45C
:1015F000192F8E81882311F000E002C0092F011BF2
:10160000CE0160E070E00E945D0A81E68EBD0DB4FF
:1016100007FEFDCF8F2D9E2D9C01F901FEB49FEF9B
:1016200007C09EBD0DB407FEFDCF8EB5819311504E
:101630001123B9F707C08EBD0DB407FEFDCF9EB5CF
:10164000015001C08FEF0023B1F7CE0161E070E0DF
:101650000E945D0A8F2DDF91CF911F910F91FF9016
:10166000EF900895EF92FF920F931F93CF93DF9324
:10167000EC01F62EE72E9C81142F941708F4192FF5
:101680008E81882311F000E002C0092F011BCE01DA
:1016900060E070E00E945D0A80EA8EBD0DB407FE36
:1016A000FDCF8F2D9E2D9C01F901FEB408C08081D5
:1016B0008EBD0DB407FEFDCF31968EB511501123AE
:1016C000B1F706C01EBC0DB407FEFDCF8EB50150AC
:1016D0000023C1F7CE0161E070E00E945D0A8F2D0A
:1016E000DF91CF911F910F91FF90EF9008950F938D
:1016F0001F93CF93DF93EC01162F042F60E070E06F
:101700000E945D0A1F7110621EBD0DB407FEFDCF61
:101710001EB50EBD0DB407FEFDCF8EB5CE0161E046
:1017200070E00E945D0A812FDF91CF911F910F9190
:101730000895262F4F702295207F242B64E0422F9E
:101740000E94770B0895CF92DF92EF92FF920F9352
:101750001F938B017A01690167E040E70E94770BD4
:1017600090E09C01E5E036952795EA95E1F7217038
:10177000F801208374E0969587957A95E1F7282FF4
:101780002170F701208396958795969587958170AE
:10179000F60180831F910F91FF90EF90DF90CF9023
:1017A0000895DF92EF92FF920F931F93CF93DF93F1
:1017B0008C017B010E94920AC82FD0E0CE01A6E0E6
:1017C00096958795AA95E1F7DD24D394D82280FFDA
:1017D00015C0E114F10431F0CE019595879587701D
:1017E000F7018083C80167E040E40E94770BC5FFE2
:1017F00005C0C80167E040E20E94770B8D2DDF91A4
:10180000CF911F910F91FF90EF90DF90089560E0CE
:1018100070E00E94D10B0895462F603808F04FE722
:1018200065E00E94770B0895EF92FF920F931F934C
:10183000CF93DF937C01162FEA01022F60E070E066
:101840000E945D0A1F7110621EBD0DB407FEFDCF20
:101850001EB508C088818EBD0DB407FEFDCF219650
:101860008EB501500023B1F7C70161E070E00E941E
:101870005D0A812FDF91CF911F910F91FF90EF9023
:101880000895EF92FF920F931F93DF93CF93CDB7FD
:10189000DEB728970FB6F894DEBF0FBECDBF7C0130
:1018A00009831A832B833C834D835E836F83788700
:1018B0008E010F5F1F4F6AE0A80125E00E94140C03
:1018C000C70160E1A80125E00E94140CF7014481E2
:1018D000413208F040E2C70161E10E94770B28968F
:1018E0000FB6F894DEBF0FBECDBFCF91DF911F9131
:1018F0000F91FF90EF9008951F93CF93DF93EC012A
:10190000162F60E070E00E945D0A1F711EBD0DB4CD
:1019100007FEFDCF8EB58FEF8EBD0DB407FEFDCF58
:101920001EB5CE0161E070E00E945D0A812FDF915B
:10193000CF911F9108950F931F93CF93DF938C0145
:10194000EB0160E00E947C0C482F437F209729F038
:10195000219711F4486001C04C60C80160E00E940A
:10196000770BDF91CF911F910F910895FF920F9305
:101970001F93CF93DF93EC018B0166E00E947C0CF8
:101980001A82B7EDFB2EF8220230110511F480E225
:1019900006C00130110529F481E08A8388E0F82A25
:1019A00001C01A82CE0166E04F2D0E94770BCE0156
:1019B00066E00E947C0C8F1511F481E002C01A824F
:1019C00080E0DF91CF911F910F91FF9008950F93C9
:1019D0001F93CF93DF938C01EB0166E00E947C0C98
:1019E000482F497FC330D10571F0C230D10511F4C1
:1019F00044600AC0C130D10511F4426005C020978F
:101A000019F0249709F44660C80166E00E94770B3C
:101A1000DF91CF911F910F910895BF92CF92DF92E6
:101A2000EF92FF920F931F93DF93CF93CDB7DEB763
:101A300028970FB6F894DEBF0FBECDBF6C01B62E4F
:101A4000E982FA820B831C832D833E834F83588760
:101A5000662389F4F601E0868A8181878B818287FB
:101A60008C8183878D8184878E8185878F8186870E
:101A70008885878707C0F6E0F61708F43DC081E047
:101A8000681761F4EB2DF0E0E859FF4FE491C601CF
:101A90006E2FAE014F5F5F4F25E00BC0E62FF0E0E9
:101AA000E859FF4FE491C6016E2FAE014F5F5F4FC3
:101AB00021E00E94140C0B2D10E0F801E259FF4FB9
:101AC000E491C6016E2FF60144810E94770BC60196
:101AD00062E00E947C0C0C581F4FF801649121E0D9
:101AE00030E002C0220F331F6A95E2F7482F422BE5
:101AF000C60162E00E94770B28960FB6F894DEBF0D
:101B00000FBECDBFCF91DF911F910F91FF90EF904E
:101B1000DF90CF90BF9008950F931F938C010E9488
:101B2000EB0AC80167E10E947C0C81701F910F9144
:101B30000895DF92EF92FF920F931F938C017B0128
:101B4000D42E60E00E947C0C482F4C7F4260C8017C
:101B500060E00E94770B86E990E00E948304C80150
:101B6000B7014D2D0E94320BF801808161E00E9487
:101B7000250F8FE090E00E948304F801808160E0EF
:101B80000E94250F1F910F91FF90EF90DF90089515
:101B90000F931F938C0160E00E947C0C482F4D7FB7
:101BA000C80160E00E94770B1F910F910895CF93B9
:101BB000DF93EC0160E00E947C0C482F4360CE0173
:101BC00060E00E94770BCE0167E040E70E94770B50
:101BD00088859985892B9A85892B9B85892B9C855E
:101BE000892B9D85892B9E85892B9F85892B41F08B
:101BF000AE01485F5F4FCE016AE025E00E94140C01
:101C0000CE010E94C20ACE010E94AA0A888161E028
:101C10000E94250F82E890E00E948304DF91CF911B
:101C20000895CF93DF93EC01888161E00E94E60E76
:101C3000898161E00E94E60E0E94AE11888160E019
:101C40000E94250FCE0161E070E00E945D0A65E010
:101C500070E080E090E00E942A04CE0164E04FE44E
:101C60000E94770BCE0163E070E00E94E70CCE018A
:101C700062E070E00E94B60C882311F081E08B8353
:101C8000CE0160E070E00E94B60CCE0162E070E030
:101C90000E949B0CCE016CE140E00E94770BCE01CC
:101CA00067E040E70E94770BCE016CE40E940C0CC9
:101CB000CE010E94C20ACE010E94AA0ADF91CF91F2
:101CC0000895EF92FF920F931F93CF93DF937C01C0
:101CD000162FEA01022F60E070E00E945D0A1F717A
:101CE0001EBD0DB407FEFDCF1EB59FEF07C09EBD04
:101CF0000DB407FEFDCF8EB5899301500023B9F7CF
:101D0000C70161E070E00E945D0A812FDF91CF91F1
:101D10001F910F91FF90EF900895AF92BF92CF92D5
:101D2000DF92EF92FF920F931F93DF93CF9300D038
:101D30000F92CDB7DEB78C010E94990D0E941C0452
:101D40006B017C015E010894A11CB11CC80168E014
:101D5000A50121E00E94610E807331F50E941C04F0
:101D60006C197D098E099F09645F71408040904025
:101D7000D8F4ECCFC8010E94740AF8018783C80127
:101D80000E94C80DC8010E94AA0A8F2D0F900F90C3
:101D90000F90CF91DF911F910F91FF90EF90DF9007
:101DA000CF90BF90AF90089598012B5F3F4FC8012F
:101DB000BE016E5F7F4FAE014D5F5F4F0E94A30B70
:101DC000FA80F80185818823D1F2D4CFCF93DF93B5
:101DD000482F50E0CA01835A9D4FFC013491475B64
:101DE0005D4FFA018491882369F190E0880F991F73
:101DF000FC01E55DFD4FA591B491FC01EB5CFD4F4D
:101E0000C591D491662351F42FB7F8948C91932FF8
:101E1000909589238C93888189230BC0623061F46B
:101E20002FB7F8948C91932F909589238C93888168
:101E3000832B88832FBF06C09FB7F8948C91832B88
:101E40008C939FBFDF91CF910895482F50E0CA0136
:101E50008F589D4FFC012491CA01835A9D4FFC016C
:101E60009491475B5D4FFA013491332309F440C0EC
:101E7000222351F1233071F0243028F42130A1F0D5
:101E8000223011F514C02630B1F02730C1F02430D3
:101E9000D9F404C0809180008F7703C080918000C6
:101EA0008F7D8093800010C084B58F7702C084B589
:101EB0008F7D84BD09C08091B0008F7703C0809171
:101EC000B0008F7D8093B000E32FF0E0EE0FFF1F96
:101ED000EB5CFD4FA591B4912FB7F894662321F4E4
:101EE0008C919095892302C08C91892B8C932FBF64
:101EF00008956F927F928F929F92AF92BF92CF92EE
:101F0000DF92EF92FF920F931F93CF93DF938C0199
:101F1000009729F4CB010E945A108C01BBC08EEFB0
:101F2000E82E8FEFF82EE00EF11E4801860E971E68
:101F30008E149F0408F4ACC0D7014D915C911197A9
:101F400046175707B8F04530510508F4A3C0CA0139
:101F500004978617970708F49DC042505040461BCF
:101F6000570BF401419351936D937C93CF010E94E1
:101F7000F71090C05B01A41AB50A3801640E751EF3
:101F8000A0910F02B0911002CC24DD24E0E0F0E03B
:101F900047C0A615B705A9F5CD91DC911197CE01E3
:101FA00002968A159B0568F1CE018A199B09029653
:101FB00012962C91129713963C91059758F0F401C4
:101FC00022833383CA19DB09D183C083D7016D9380
:101FD0007C9309C04E5F5F4F4C0F5D1FF70151832B
:101FE0004083C901FC01C114D10431F0D60113961C
:101FF000FC93EE9312974EC0F0931002E0930F0201
:1020000049C08D919C911197E817F90708F4FC01DC
:102010006D0112968C91129713969C919C01D90197
:10202000109709F0B6CF80910D0290910E0286159F
:102030009705E9F4E617F707D0F4209124013091D1
:1020400025012115310541F42DB73EB780912001BE
:1020500090912101281B390B82169306C8F49092A7
:102060000E0280920D02F7017183608313C0CB01D1
:102070000E945A10EC01009759F0D7014D915C91E4
:10208000B8010E949B01C8010E94F7108E0102C096
:1020900000E010E0C801DF91CF911F910F91FF90F8
:1020A000EF90DF90CF90BF90AF909F908F907F90F8
:1020B0006F9008950F931F93CF93DF93BC018230ED
:1020C000910510F462E070E0E0910F02F0911002CF
:1020D000A0E0B0E040E050E024C08081918186170C
:1020E0009707D0F08617970771F482819381109734
:1020F00029F013969C938E9312972CC09093100204
:1021000080930F0227C04115510519F084179507D8
:1021100018F4EF018D01AC01DF01828193819C01F4
:10212000F9013097D1F641155105F9F0CA01861B26
:10213000970B8430910580F48A819B8101151105EC
:1021400021F0F8019383828304C09093100280935E
:102150000F02FE01329645C0FE01E80FF91F6193A0
:1021600071930297998388833CC080910D0290916E
:102170000E02892B41F480912201909123019093CA
:102180000E0280930D0240912401509125014115CA
:10219000510541F44DB75EB7809120019091210126
:1021A000481B590B20910D0230910E022417350760
:1021B000B0F4CA01821B930B8617970780F0AB011E
:1021C0004E5F5F4F8417950750F0420F531F509397
:1021D0000E0240930D02F9016193719302C0E0E099
:1021E000F0E0CF01DF91CF911F910F910895CF9330
:1021F000DF939C01009709F48FC0EC0122971B82AA
:102200001A8260910F02709110026115710581F4BC
:1022100088819981820F931F20910D0230910E02C7
:102220002817390739F5D0930E02C0930D0274C0F8
:10223000DB0140E050E0AC17BD0708F1BB83AA8387
:10224000FE0121913191E20FF31FAE17BF0779F420
:102250008D919C911197280F391F2E5F3F4F398325
:10226000288312968D919C9113979B838A834115A5
:10227000510571F4D0931002C0930F024DC0129615
:102280008D919C911397AD01009711F0DC01D3CF94
:10229000DA011396DC93CE931297FA0121913191D2
:1022A000E20FF31FCE17DF0769F488819981280FA9
:1022B000391F2E5F3F4FFA01318320838A819B8132
:1022C00093838283E0E0F0E0DB0112968D919C9194
:1022D0001397009719F0BC01FD01F6CFAB014E5FDB
:1022E0005F4FDB018D919C91840F951F20910D0212
:1022F00030910E022817390779F4309729F410929B
:10230000100210920F0202C01382128242505040FB
:1023100050930E0240930D02DF91CF9108958823D0
:1023200019F48CB5806202C08CB58F7D8CBD089588
:102330009CB5937F982B9CBD08952CB5382F337096
:102340002C7F322B3CBD2DB590E0959587959595CA
:10235000879581702E7F822B8DBD08958AE061E084
:102360000E94250F8AE061E00E94E60E8CB5806134
:102370008CBD8CB580648CBD8DE061E00E94E60E62
:102380008BE061E00E94E60E08955058BB27AA2713
:102390000ED075C166D130F06BD120F031F49F3F83
:1023A00011F41EF45BC10EF4E095E7FB51C1E92F77
:1023B00077D180F3BA17620773078407950718F07F
:1023C00071F49EF58FC10EF4E0950B2EBA2FA02D5F
:1023D0000B01B90190010C01CA01A0011124FF27D2
:1023E000591B99F0593F50F4503E68F11A16F040CD
:1023F000A22F232F342F4427585FF3CF46953795CC
:102400002795A795F0405395C9F77EF41F16BA0B90
:10241000620B730B840BBAF09150A1F0FF0FBB1F3E
:10242000661F771F881FC2F70EC0BA0F621F731F87
:10243000841F48F4879577956795B795F7959E3FE4
:1024400008F0B3CF9395880F08F09927EE0F979572
:1024500087950895D9D008F481E008950CD00FC174
:1024600007D140F0FED030F021F45F3F19F0F0C00A
:10247000511139C1F3C014D198F39923C9F35523ED
:10248000B1F3951B550BBB27AA2762177307840767
:1024900038F09F5F5F4F220F331F441FAA1FA9F31D
:1024A00033D00E2E3AF0E0E830D091505040E6950F
:1024B000001CCAF729D0FE2F27D0660F771F881F70
:1024C000BB1F261737074807AB07B0E809F0BB0B5F
:1024D000802DBF01FF2793585F4F2AF09E3F510583
:1024E00068F0B6C000C15F3FECF3983EDCF3869520
:1024F00077956795B795F7959F5FC9F7880F911DF9
:102500009695879597F90895E1E0660F771F881FE4
:10251000BB1F621773078407BA0720F0621B730B97
:10252000840BBA0BEE1F88F7E095089504D06894E9
:10253000B111D9C00895BCD088F09F5790F0B92F41
:102540009927B751A0F0D1F0660F771F881F991F08
:102550001AF0BA95C9F712C0B13081F0C3D0B1E01A
:102560000895C0C0672F782F8827B85F39F0B93F2A
:10257000CCF3869577956795B395D9F73EF490950A
:102580008095709561957F4F8F4F9F4F0895E89488
:1025900009C097FB3EF490958095709561957F4FAB
:1025A0008F4F9F4F9923A9F0F92F96E9BB27939559
:1025B000F695879577956795B795F111F8CFFAF469
:1025C000BB0F11F460FF1BC06F5F7F4F8F4F9F4F9A
:1025D00016C0882311F096E911C0772321F09EE8F8
:1025E000872F762F05C0662371F096E8862F70E05E
:1025F00060E02AF09A95660F771F881FDAF7880F38
:102600009695879597F90895990F0008550FAA0B8D
:10261000E0E8FEEF16161706E807F907C0F01216F5
:102620001306E407F50798F0621B730B840B950BF8
:1026300039F40A2661F0232B242B252B21F408954D
:102640000A2609F4A140A6958FEF811D811D0895EA
:1026500097F99F6780E870E060E008959FEF80EC55
:10266000089500240A9416161706180609060895F8
:1026700000240A9412161306140605060895092E5E
:102680000394000C11F4882352F0BB0F40F4BF2BCD
:1026900011F460FF04C06F5F7F4F8F4F9F4F08950D
:1026A00057FD9058440F551F59F05F3F71F0479503
:1026B000880F97FB991F61F09F3F79F087950895E8
:1026C000121613061406551FF2CF4695F1DF08C007
:1026D000161617061806991FF1CF86957105610524
:1026E00008940895E894BB2766277727CB0197F9CC
:1026F00008958ADF08F48FEF08950BD0C0CFB1DFC3
:1027000028F0B6DF18F0952309F0A2CFA7CF112447
:10271000EACFC6DFA0F3959FD1F3950F50E0551F88
:10272000629FF001729FBB27F00DB11D639FAA2726
:10273000F00DB11DAA1F649F6627B00DA11D661F75
:10274000829F2227B00DA11D621F739FB00DA11D96
:10275000621F839FA00D611D221F749F3327A00D50
:10276000611D231F849F600D211D822F762F6A2FEC
:1027700011249F5750408AF0E1F088234AF0EE0F71
:10278000FF1FBB1F661F771F881F91505040A9F77E
:102790009E3F510570F05CCFA6CF5F3FECF3983EB3
:1027A000DCF3869577956795B795F795E7959F5FE5
:1027B000C1F7FE2B880F911D9695879597F908957F
:1027C00023DF880B990B0895629FD001739FF0015E
:1027D000829FE00DF11D649FE00DF11D929FF00DB1
:1027E000839FF00D749FF00D659FF00D9927729FE8
:1027F000B00DE11DF91F639FB00DE11DF91FBD0173
:10280000CF0111240895A1E21A2EAA1BBB1BFD01C2
:102810000DC0AA1FBB1FEE1FFF1FA217B307E407BF
:10282000F50720F0A21BB30BE40BF50B661F771F17
:10283000881F991F1A9469F76095709580959095F7
:102840009B01AC01BD01CF010895EE0FFF1F059064
:10285000F491E02D099412E0CCE8D2E004C0FE012E
:102860000E9427142296CE38D107C9F7F894FFCFDB
:10287000006E616E00696E66006F7666002E000065
:10288000000048440000000000000000320000008A
:1028900080001102000000000000000000000000A5
:1028A000000000000000AE09C8044409750955097C
:0228B0009E097F
:00000001FF
