:1000000000800020BD010000691E0000691E000084
:10001000691E0000691E0000691E0000351E0000F8
:10002000351E0000351E0000351E0000691E000050
:10003000691E0000351E0000691E0000251E00001C
:10004000691E0000691E0000691E0000691E000094
:10005000691E0000691E0000691E0000691E000084
:10006000691E0000691E0000691E0000691E000074
:10007000691E0000691E0000691E0000691E000064
:10008000691E0000691E0000691E0000691E000054
:10009000691E0000691E0000691E0000691E000044
:1000A00075570000691E0000691E0000691E0000EF
:1000B000691E0000691E0000691E0000691E000024
:1000C000691E0000691E0000691E0000691E000014
:1000D000691E0000691E0000691E0000691E000004
:1000E000691E0000691E0000691E0000691E0000F4
:1000F000691E0000B9190000691E0000D53100001A
:10010000691E00001D0D0000691E0000691E000030
:10011000691E0000691E0000691E0000691E0000C3
:10012000691E0000691E0000691E0000691E0000B3
:10013000691E0000691E0000691E0000691E0000A3
:10014000691E0000691E0000691E0000691E000093
:10015000154000002D400000454000005D400000BB
:10016000ED5000007D0F0000691E0000691E0000B8
:10017000691E0000691E0000691E0000691E000063
:10018000691E0000691E0000691E0000691E000053
:10019000691E0000691E0000691E0000AD1F0000FE
:1001A000FD1F00008520000041210000C521000046
:1001B000691E0000691E0000694300004E4B4CF2AE
:1001C000205210B51A804DF628121A8000BF00BFC9
:1001D00001F04DFE494B4FF010621A60484A9A6098
:1001E000484ADA60484B1A6812F4807204D14749D1
:1001F0000A604FF4A8521A60454B1A7802F00802C0
:10020000D2B21AB11A7842F008021A700023414A99
:100210004148424C02E019599950043399188142DF
:10022000F9D33F4B3F4A002101E043F8041B9342BE
:10023000FBD33D4B00221A603C4B3D4A802103F822
:10024000011B9342FBD13B4B0A221A703A4B2422EA
:100250001A70A02203F8012C384A137803F0020325
:10026000DBB2002BF9D0354A137803F01003DBB270
:10027000002BF9D1314A137803F00C03082BFAD183
:100280002F4B03221A7040225A702C4A137803F025
:100290002003DBB2002BF9D0284A137803F0400387
:1002A000DBB2002BF9D0274A274B1A60274B2022BC
:1002B0001A70224A137803F00C030C2BFAD1244B4A
:1002C00002221A60234A43F8442C234B234A1A6023
:1002D000072243F8042C62B602F0EDF90B4B1B68C1
:1002E000DC0702D51E4801F08BFF0CF06FF801F01F
:1002F000C5FD00F0F5FBFEE70E2005403080044010
:10030000823F04000100002B10D0034014D00340B2
:1003100002D007400084FF1F748AFF1F2C45010094
:10032000788AFF1FB892FF1F08ED00E000E400E0AC
:100330005FE400E0005006400140064006400640F1
:100340000440064000000301448004400040064091
:1003500048800440C010050014E000E0FF76010072
:1003600000DD6850FFFFFFFFFFFFFFFFFFFFFFFF04
:10037000FFFFFFFFFFFFFFFFFFFFFFFFFFFFFFFF8D
:10038000FFFFFFFFFFFFFFFFFFFFFFFFFFFFFFFF7D
:10039000FFFFFFFFFFFFFFFFFFFFFFFFFFFFFFFF6D
:1003A000FFFFFFFFFFFFFFFFFFFFFFFFFFFFFFFF5D
:1003B000FFFFFFFFFFFFFFFFFFFFFFFFFFFFFFFF4D
:1003C000FFFFFFFFFFFFFFFFFFFFFFFFFFFFFFFF3D
:1003D000FFFFFFFFFFFFFFFFFFFFFFFFFFFFFFFF2D
:1003E000FFFFFFFFFFFFFFFFFFFFFFFFFFFFFFFF1D
:1003F000FFFFFFFFFFFFFFFFFFFFFFFFFFFFFFFF0D
:10040000FFFFFFFFFFFFFFFFFFFFFFFFFEFFFFFFFD
:1004100008B548F67420074BC1F6FF701B1A062B6F
:1004200000D808BD40F20003C0F20003002BF8D052
:100430009847F6E7778AFF1F08B548F6742048F614
:100440007423C1F6FF70C1F6FF731B1A9B1003EBF8
:10045000D373591000D108BD40F20002C0F200026F
:10046000002AF8D09047F6E710B548F67824C1F690
:10047000FF74237873B9FFF7CBFF40F20003C0F29B
:1004800000032BB144F22C50C0F20100AFF3008006
:100490000123237010BD00BF08B540F20003C0F275
:1004A00000034BB144F22C5048F67C21C0F201000D
:1004B000C1F6FF71AFF3008048F67420C1F6FF70FB
:1004C00003682BB140F20003C0F2000303B1984768
:1004D000BDE80840FFF7B0BF38B50B4D0B4C2846C0
:1004E000216804F0ADFDA81D616804F0A9FD05F1C7
:1004F0000C00A16804F0A4FDE16805F11200BDE85C
:10050000384004F09DBD00BF948AFF1F0484FF1F84
:10051000B0F5487F064B02D24FF4487206E0B0F5C2
:10052000E16F01D8186170474FF4E1621A617047BA
:100530000484FF1F38B50B4D04462146284604F0BD
:100540007FFDA81D214604F07BFD05F10C0021462E
:1005500004F076FD05F112002146BDE8384004F0B4
:100560006FBD00BF948AFF1F10B5104C14212046A8
:1005700004F034FD1521A01D04F030FD162104F116
:100580000C0004F02BFD172104F1120004F026FDED
:100590004FF4E160FFF7CEFF41F2883002F076F8C9
:1005A0004FF44870BDE81040FFF7C4BF948AFF1FA6
:1005B000014B1869704700BF0484FF1F10B5024C3F
:1005C00084E80F0010BD00BF0484FF1F10B5084C65
:1005D000204604F09BFCA01D04F098FC04F10C00E4
:1005E00004F094FC04F11200BDE8104004F08EBC4D
:1005F000948AFF1FFFFFFFFF10B50B4C0B4805F05F
:100600007BF8204606F03CFA036820641B6902E090
:10061000206C03689B699847206C0368DB699847E6
:100620000028F5D010BD00BFAC8AFF1F5C91FF1FF2
:1006300013B5214C206C03689B699847A0B3236CC9
:10064000DA6A03F10801009204F1440003F1140294
:10065000203306F003F9D4F88C000AF05BFB14A3F6
:10066000D3E900230AF0AAFB0AF08AFEC4F8A0002E
:10067000D4F8900000F100400AF04CFB0CA3D3E941
:1006800000230AF09BFB0AF07BFEC4F8A400D4F818
:1006900094000AF03FFB06A3D3E900230AF08EFB87
:1006A0000AF06EFEC4F8A8001CBD00BFAFF30080C6
:1006B000F8C1631ADCA54C40AC8AFF1F00487047A4
:1006C0004C8BFF1FAFF3008038B5084C04F1440594
:1006D000284605F0D0FF28460549064A0BF058FE8B
:1006E0002046BDE8384006F077BD00BFAC8AFF1F4A
:1006F0002D6600000084FF1F10B5134C204604F047
:1007000081FB0F222046002104F0E0FB0C21204653
:1007100004F0E6F8204608A3D3E9002304F0EEF93C
:100720002046012106A3D3E9002304F000FA204665
:10073000BDE8104004F0DCB8D2F0F0F0F0000000AA
:10074000E1F0F0F0F0000000588BFF1F30B51748C3
:1007500085B004F079F938B3144801A90C2204F0EB
:1007600076F90028F8D001980BF02EF9FFF7D0FEAB
:1007700002980AF0CFFA044603980D460AF0CAFA26
:1007800002460B462046294600F006F9FFF796FF81
:100790000446064804F0D9F8044821460C2204F027
:1007A00073F9024804F0A4F805B030BD588BFF1F60
:1007B000024808210A2204F07BB800BF588BFF1FB3
:1007C00010B50C4C0121204604F07BFE04F17800AA
:1007D000012104F076FE04F1F000012104F071FE25
:1007E000FFF76CFF80680AF095FA04F5B474C4E969
:1007F000000110BD688BFF1F2DE9F04F85B0FFF79A
:100800005DFF604C054600680AF084FAD4E90223D3
:100810000AF020F92646E6E8040168680AF07AFA48
:10082000D4E906230AF016F9C6E90001A8680AF01F
:1008300071FA54E902230AF00DF9C4E90801FFF73F
:10084000B7FE40F2513306469E42A4F5B87022D856
:10085000002104F036FEA4F1F800002104F031FE7E
:100860000021A4F1800004F02CFE25460022002384
:10087000E5E90A23A4F5B870C4E90C23C4E90E2302
:1008800004F0FBFDA5F5907004F0F7FDA4F18000E5
:1008900004F0F3FD0AE0012104F013FE3A480121BF
:1008A00004F00FFE3948012104F00BFE3848394CA2
:1008B00004F08EFC344804F08BFC344804F088FCCF
:1008C000254630460AF004FAF5E802AB52465B468C
:1008D000CDE902010AF0BEF85246804689465B46E1
:1008E000DDE90201D5E900670AF0B6F8D4E904456C
:1008F00082468B4632463B46404649460AF0AAF8B5
:1009000022462B460AF0A8F80AF03AFD0BF05CF8F4
:10091000324684463B4650465946CDF804C00AF05C
:100920009BF822462B460AF097F80AF029FD0BF0B7
:100930004BF8324602903B46404649460AF08CF856
:1009400022462B460AF086F80AF01AFD0BF03CF816
:10095000324680463B46504659460AF07BF82246CE
:100960002B460AF077F80AF00BFD0BF02DF8DDF8B6
:1009700004C0029903464246604605B0BDE8F04F08
:10098000FFF71CBED88CFF1FE08BFF1F588CFF1F8A
:10099000688BFF1F008DFF1F30B5054C04F5BC753B
:1009A00004F5C474C5E90001C4E9002330BD00BFEB
:1009B000688BFF1FFFFFFFFF2DE9F04F24A5D5E94E
:1009C000004589B0DFF894A0234FDFF8949000260B
:1009D0004FF000084FF0000B0AF5B8710AF5CC7221
:1009E0000AF5D873CDE90067CDE90289CDE9044560
:1009F000CDF818B0504604F098FD0AF5C0710AF51C
:100A0000D0720AF5DC73CDE90067CDE90289CDE942
:100A10000445CDF818B00AF1780004F086FD0022F4
:100A20000023CDE9022301230693CDE90067CDE938
:100A300004450AF1F0000AF5C8710AF5D4720AF506
:100A4000E07304F072FD09B0BDE8F08FAFF30080F1
:100A5000333333333333D33F0000F03F688BFF1F12
:100A60000000F83FAFF3008010B50B4C40F6B830F3
:100A700001F00CFE0949204600F020F8FFF73CFE8B
:100A8000FFF7BAFDFFF770FDFFF79AFE2046044915
:100A900000F014F810BD00BF5C90FF1F343B010054
:100AA000423B010008B5FFF751FEFFF7C1FDFFF71C
:100AB000A3FEBDE80840FFF70FBD00BF38B50446F0
:100AC00008460D4601F086FE2368024629465B680B
:100AD000204698470546204603F094F9281838BD6B
:100AE00008B5FFF7C1FFFFF7DDFFFCE7154B1A68FC
:100AF00042F480521A60144A0023137053709370AA
:100B0000D3701371114A40F2133111604FF45171D7
:100B100051600F4AC0F344311170C0F3471100F027
:100B20001F0051709072937013740A4B2C221A702C
:100B3000094B40226FF44B711A705B184FF400326E
:100B40001A60704734800440308DFF1F08C0044095
:100B500000C0064003C0064031E400E0134A1378A9
:100B600000F0030103F0EC030B43410748BF43F0DF
:100B70001003137000F00F03042B04D10C4B1A78F0
:100B800042F040021A700B4A1378C10603F0EF03DB
:100B900048BF43F010031370054A1378800603F032
:100BA000EF0348BF43F010031370704702C00640C4
:100BB00006C0064005C006400D4B1B68D80410B5A2
:100BC00003D410BD02F02CF800E00A4C2379094A46
:100BD000002BF7D108494FF4003008600749084856
:100BE0000B7040F20311016041601370537010BD2F
:100BF00034800440308DFF1F84E100E003C00640D4
:100C000008C004401A4B1B68DA042DE9F04106467F
:100C10002BD5184D184FAC78DFF864800134272CA1
:100C200088BF002415E001F04DF940280DDC3B7829
:100C30001B060ED5EB780133272B88BF0023EA185B
:100C4000527988F80020EB7003E0FF2801DD01F005
:100C5000E7FFEA78074BA242E5D01A195671012244
:100C60001A719C70054BAC221A70BDE8F08100BF70
:100C700034800440308DFF1F04C0064003C006408E
:100C800007C0064038B54518044603E014F8010BC8
:100C9000FFF7B8FFAC42F9D138BD10B5034C01E005
:100CA00001F0BEFF2379002BFAD110BD308DFF1F5C
:100CB000034A10785378984238BF4030C01A7047C2
:100CC000308DFF1F084A11785378994208D00133BC
:100CD0003F2B88BF0023D11891F82D005370704727
:100CE0004FF0FF30704700BF308DFF1F074A11786B
:100CF0005378994207D001333F2B88BF0023D31884
:100D000093F82D0070474FF0FF307047308DFF1F74
:100D1000014B5A781A707047308DFF1F10B5204B69
:100D20001B7803F02003DBB273B11E4B1E4A187808
:100D30001378517801333F2B88BF00238B4203D0B7
:100D4000D11881F82D00137018490B7818465BB242
:100D5000002B14DA124B1B781B0610D5124A94781C
:100D6000D3789C4202D16C230B7008E00133272B0F
:100D700088BF0023D1184C790A490C70D37000F059
:100D80004003DBB25BB1064B1B7803F04003DBB2E0
:100D90002BB1054B00221A71044B2C221A7010BD86
:100DA00004C0064007C00640308DFF1F03C0064048
:100DB00070B50C4B0C4C1A7842F0020504EBC506DA
:100DC00082F00102706058781A7000280CBF8826E3
:100DD000C82646EA014180F0010044F835105870F9
:100DE00070BD00BFA08DFF1F0080FF1F431E032B9F
:100DF00010B510D872B6094A02EB8302506840B1B0
:100E000041685160064A018832F81340611A22F89D
:100E1000131062B610BD002010BD00BFA08DFF1FD3
:100E2000A491FF1F013803280DD8084B03EB800065
:100E3000436972B6002002E01A885B688018002BB4
:100E4000FAD162B670470020704700BFA08DFF1F27
:100E5000013803280CD872B6064B03EB80004369B7
:100E6000002001E05B680130002BFBD162B67047C7
:100E700000207047A08DFF1F70B572B61A4E1B4C34
:100E800001239A1912F8012C02F00802D2B2F2B131
:100E90009900164A54F831502DB902EB431308302B
:100EA0005860134B09E041F0010154F8315075B915
:100EB00002EBC103083058600E4B42F831300E4B44
:100EC00093F82420013A83F8242062B670BD0133E0
:100ED000052BD6D162B6084B002283F82420BDE84A
:100EE000704000F07DBF00BF903C01000080FF1FFC
:100EF00088004000C8004000A08DFF1F421E032A4A
:100F000030B533D840011A4B40F01000181872B6B3
:100F1000184CA31893F82530032B09D8DFE803F009
:100F2000130215050830022310E0083004230DE0F9
:100F30009200A318586908B9596101E0DB6A596049
:100F4000A218D16211E0032300E00523A21810F0DB
:100F5000080F82F8253001F108030A8843600CBFAE
:100F60008823C82343EA0243036062B630BD00BF52
:100F70000080FF1FA08DFF1F00BE70472DE9F74FB7
:100F8000AB4EAC4C357805F00403DBB2BBB1AA4BD9
:100F900093F844208AB193F845202AB1013AD2B29D
:100FA00083F8452002B900BEA44A13782BB1013B57
:100FB000DBB213700BB900F0D9FE0423337005F0D7
:100FC0000802D2B2002A00F0AF829D4B1B781D09A7
:100FD0004FEA930940F0058204EBC903596854F8BD
:100FE0003930C3F38303013B0C2B00F2F681DFE8B9
:100FF00013F0AB01AB01F401F401F401F401F401CD
:10100000F401C901F401F401F4010D004B688A48B0
:101010000A68C3648B4B826440F2816592B244F8E3
:10102000393001210023AA4203652361A361417085
:1010300017D8B2F5D06F80F02C81B2F5817F00F027
:10104000E58006D8802A00F0C580822A40F04081E1
:10105000C5E040F202339A4200F00A81B2F5A06F77
:1010600016E042F22105AA4200F06B8108D8B2F5E1
:10107000086F00F0A880B2F5106F40F029810AE0F7
:1010800042F221218A4200F01E8142F221339A422B
:1010900040F01E8120E190F84A30664D80F84430DF
:1010A0002B6A180603D5686A083800F099FE66496D
:1010B00008358D42F4D1DFF8B0B10025A846D946F5
:1010C0000BF1500A55F80B0005E04368009300F05F
:1010D00087FE009B18460028F7D15C4B49F80500B5
:1010E00045F80A00E85807E042680093019200F0D2
:1010F00077FE019A009B10460028F5D15851544BB9
:10110000E850544B23F81800534B18F80320023AC8
:10111000032A08D8DFE802F002040204002200E0FB
:10112000012203F8082008F101080435B8F1040F82
:10113000C8D1414BDFF83491002283F824200125E7
:101140009846464B05EB0902EB1812F8012C9B0060
:101150001A7002F00802D2B23AB300F023FEAB00DC
:1011600038B104EB4512083050603D4A44F8332052
:1011700006E044F8330098F82430013388F824302E
:1011800000F010FEAB0043F0010338B104EBC302E2
:10119000083050602B4A44F8332006E044F833000E
:1011A00098F82430013388F82430AA0042F0020174
:1011B000013542F003020023052D44F8313044F894
:1011C0003230BED189E090F84430054605F83C3F06
:1011D0000B4687E080F83C3080F83D307FE0B0F887
:1011E0004C20042A00D973E080F83C3080F83D3070
:1011F0001C4B9200D3181B7803F00203DBB2002BC8
:101200006DD00546022305F83C1F6BE0B0F84C207A
:1012100002F07F03042B5BDCB0F84A3003B157E0E7
:101220009100104A8A18117821F002014EE000BFA7
:10123000802007400080FF1FA08DFF1F218FFF1F10
:1012400090200740C80040008080FF1FB48DFF1F22
:10125000CC8DFF1FA491FF1FC58DFF1F30C801104B
:1012600088004000C0200740A48DFF1F903C010073
:10127000B0F84C2002F07F03042B29DCB0F84A3090
:1012800003B125E091009E4A8A18117841F00201CD
:101290001CE0B0F84A20B0F84C109A4B53F8085CA8
:1012A000A3F10C00A5B133F80CCC944509D133F867
:1012B0000ACC8C4505D1120A032A0CBF2B7803896E
:1012C00010E00C33EAE790F84A108F4A117004E0FE
:1012D0008B4B0F221A7034E000231D4602E00223DC
:1012E00000F13C05894AB2F84E904B4538BF99460B
:1012F000B9F1400F34BFC8464FF040082846414678
:10130000FFF756FDB9EB0809454403D1B8F1400F8A
:1013100007D016E0B9F1400F34BFC8464FF040087F
:1013200000E0C84628464146FFF742FDB9EB0809F0
:10133000454402D1B8F1400F03D1744A1565A2F8B3
:1013400064900122724B47E0704BB3F8482042F2A0
:1013500021039A4212D16F4A0023C85C985401338A
:10136000072BFAD16B4B1B68862B03D1674B0F22DF
:1013700083F8452000200146FFF71AFD664B44F82C
:1013800039302AE0DFF88491D9F85080B8F1000FA5
:1013900016D0B9F864A0BAF1400F34BF55464025C5
:1013A00040462946FFF704FDC5EB0A039BB2A9F8A6
:1013B00064300BB9402D01D108EB0503534A136586
:1013C000524BB3F84820B2F5A06F06D1002283F843
:1013D000492093F84A20514B1A704D4B01221A7044
:1013E0008AE004EBC90803F00803D8F80420013DA3
:1013F000D9B2A2F10800EDB2002945D000F0F0FC0E
:10140000424B03EB8500416921B34A68426101F117
:101410000802C8F804205A1992F82520032A10D887
:10142000DFE802F00205080B5D19032307E05D19F0
:10143000022304E05D19052301E05D19042385F80A
:10144000253018F0080F0A880CBF8823C82343EA08
:1014500002434FE05A1992F82520032A0BD8DFE8FF
:1014600002F04B4B02055D19002301E05D190123D9
:1014700085F8253040E018F0080F1D440CBF02220B
:10148000032285F8252037E054F839301B0C22F868
:10149000083C4BB322F8061C42F8041C1B4A4FEAD6
:1014A000850E02EB0E0194464A680AB9486001E0D5
:1014B0004A6D50600CEB0E02DFF850A05065184AE0
:1014C00032F815105B1822F8153000F06BFC18B1DB
:1014D0000830C8F8040007E09AF8243044F83900CE
:1014E00001338AF8243007E00B4B0E4A18F0080F3E
:1014F00008BF134644F839300823337042E500BF73
:10150000C0200740A03C0100228FFF1FA08DFF1FBD
:1015100094200740AC91FF1FC8004000982007406E
:10152000A491FF1F88004000E90720D51D4C1E48EC
:101530001E4D21460223037001F8682B1C4BA83472
:101540001D6059601A619A619D60DC60194B0D2124
:1015500019701949FF230B7001F8083C0A74174AE7
:101560001370174B9F221A700123037018E02B068B
:1015700005D5104B0D221A70802203F8402C05F07F
:101580000203DBB22BB10C4B1A781A70022203F85B
:10159000082C05F01005EDB215B10A4B10221A7097
:1015A000BDE8FE8FA08DFF1F9420074088004000FB
:1015B0000080FF1FC0200740882007408C20074084
:1015C000842007408020074008B501F0BBFC0023C1
:1015D0001E491A465A50C8180833882B4260F9D160
:1015E0001B4B1A6842F480221A601A4B80221A7030
:1015F0001978184A0906FBD4144B1749C3F307207E
:101600000870C3F307401B0E08750B76FF2301F823
:101610001C3C01F8143C01F88C3C137843F0400367
:1016200013700021012302F8783C02F80C1C02F828
:10163000883C0A4B70226FF4507C1A7063444FF45C
:1016400000721A60064B10221A7008BD0080FF1F3E
:10165000348004400C2107409C20074049E400E00E
:1016600008210740194B1A6842F480621A60184B2F
:1016700000221A705A709A70DA701A71154B40F283
:1016800013321A604FF451725A60134BC0F3443254
:101690001A70C0F347125A7000F01F000F4A987278
:1016A0000221042313705174D3740D4B88221A70D5
:1016B0003C2203F80D2C0B4B40226FF44A711A7038
:1016C0005B184FF400521A60704700BF348004402A
:1016D000888EFF1F40A0044000A0064002A00640E4
:1016E00010A006402DE400E0134A137800F0030137
:1016F00003F0EC030B43410748BF43F010031370A2
:1017000000F00F03042B04D10C4B1A7842F0400276
:101710001A700B4A1378C10603F0EF0348BF43F079
:1017200010031370054A1378800603F0EF0348BFD7
:1017300043F010031370704702A0064006A0064055
:1017400005A006400D4B1B68580510B503D410BD0D
:1017500001F066FA00E00A4C2379094A002BF7D120
:1017600008494FF400500860074908480B7040F2E0
:101770000311016041601370537010BD3480044048
:10178000888EFF1F84E100E003A0064040A00440D3
:1017900038B5094B04461D79002DFCD120460121A6
:1017A00000F0EAFD2046294600F0BAFD034B53F84D
:1017B0003420014B9A6038BD888EFF1F503B0100DA
:1017C0001C4B1B685A052DE9F041064630D51A4AD4
:1017D00093680BB1012119709478174D174FDFF8FA
:1017E000648001343F2C88BF002415E000F06AFBC0
:1017F00040280DDC3B781B060ED5EB7801333F2BE0
:1018000088BF0023EA18127B88F80020EB7003E001
:10181000FF2801DD01F004FAEA78074BA242E5D087
:101820001A19167301221A719C70054BBC221A708A
:10183000BDE8F08134800440888EFF1F04A006407C
:1018400003A0064007A0064000F00F00092801D8B9
:10185000303000E03730FFF7B3BF2DE9F84F254BAC
:101860001B6807465805894642D5234B9B680BB138
:1018700001221A70204C3E46A34632E0A5789BF820
:10188000038001353F2D88BF0025A84507D0631987
:1018900016F8012B1A7301232371A57021E0174B51
:1018A000DFF860A0BC221A7000F00CFB402810DCAE
:1018B0009AF80030190610D5E37801333F2B88BF22
:1018C00000230BEB0302117B0D4A11708BF80330E0
:1018D00003E0FF2801DD01F0A3F9E3784345E3D0FD
:1018E000D5E707EB09039E42C8D3044BBC221A700C
:1018F000BDE8F88F34800440888EFF1F03A00640A7
:1019000007A0064004A0064010B5044C01E001F019
:1019100087F92379002BFAD110BD00BF888EFF1FF5
:10192000034A10785378984238BF4030C01A704745
:10193000888EFF1F084A11785378994208D00133E6
:101940003F2B88BF0023D11891F84C00537070478B
:101950004FF0FF30704700BF888EFF1F074A117895
:101960005378994207D001333F2B88BF0023D31807
:1019700093F84C0070474FF0FF307047888EFF1F80
:10198000094B1B685B050ED5084B1A7802F0CB0299
:101990001A70074A402111701A7842F034021A7006
:1019A000044B5A781A7070473480044003A00640F4
:1019B00011A00640888EFF1FF0B5304B1B7813F046
:1019C000300F21D072B62E4B197831B90F3B40221F
:1019D0001B782C4B1A7062B616E062B62A4B2B4C61
:1019E0001A7858781D46531C3F2B88BF002383422A
:1019F000267803D0EA1882F84C601A46013911F0B3
:101A0000FF01F0D1204B1A70214B1B7818465BB2B6
:101A1000002B1EDA19490B781B061AD51A4A1B4EE1
:101A200097781C4DD378BB420AD001333F2B88BF37
:101A300000230C78D418247B34702C78072CF2D92E
:101A4000114AD3700D4B1B781A0602D5104B7C221D
:101A50001A7000F04003DBB273B1084B1B7803F03F
:101A60004003DBB243B1084B00221A719B6803B1FB
:101A70001A70074B3C221A70F0BD00BF04A006404C
:101A800016A0064011A00640888EFF1F07A0064042
:101A900003A0064014A0064038B5451E07E00A2CF6
:101AA00002D10D20FFF78CFE2046FFF789FE15F8C6
:101AB000014F002CF3D138BD10B504460009FFF7E3
:101AC000C3FE2046BDE81040FFF7BEBE10B5044679
:101AD000000AFFF7F1FF2046BDE81040FFF7ECBF1A
:101AE00010B50446000EFFF7E7FF200CFFF7E4FFF8
:101AF000200AFFF7E1FF2046BDE81040FFF7DCBFFA
:101B000038B5114C23684BB10F4D286842888118B5
:101B100001320C7A01888A4212D30CE00B4B1B78FD
:101B200013B94FF0FF340CE00320FFF75FF920609A
:101B30000028E9D1F5E700F053F900232B6000E01D
:101B40004280204638BD00BF148FFF1FE48DFF1F69
:101B500010B50C4C23681BB10A4B1B686BB902E033
:101B6000094B1B7813B94FF0FF3010BD0320FFF76E
:101B70003DF920600028EFD1F5E75A889B18187AC4
:101B800010BD00BF148FFF1FE48DFF1F044B98880A
:101B9000044B1B681BB11A885B88D31AC0187047A6
:101BA000A491FF1F148FFF1F2DE9F0470E468146B9
:101BB0004FF00008DFF868A0184F2AE09AF80030CC
:101BC0004BB33B684BB90320FFF710F9386010B3F3
:101BD000038813B900F004F9F5E73C6861882588AB
:101BE0006D1AAE4238BF3546083148462A4661185C
:101BF0000AF030FF6388A944A844761BED182388B7
:101C0000ADB2AB42658004D8204600F0E9F800236D
:101C10003B60002ED2D14046BDE8F087148FFF1FF5
:101C2000E48DFF1F10B5094B1B786BB1084C206881
:101C300018B100F0D5F8002323600320FFF7D6F891
:101C400010B100F0CDF8F8E710BD00BFE48DFF1F24
:101C5000148FFF1F2DE9F8432B4CDFF8B0800123D0
:101C60000D462371064647E0A3681BBB4AF2F927DD
:101C70004FF0010998F8003013B9234A137112E0AC
:101C80000420FFF7E5F8072806D884F8049000F050
:101C900089F8A06070B92071013F01D0237B33B176
:101CA000194B01221A734FF0FF30BDE8F88300F0A2
:101CB000B7FFDFE7A1684888C0F14002954238BF0E
:101CC0002A4600F10807002380182373CF194880A3
:101CD000AD1A02E0F05CF85401339342FAD1F618E1
:101CE0004B883F2B06D940230B800420FFF706F9D1
:101CF0000023A36005236373002DB5D1024B284652
:101D00001D71BDE8F88300BF148FFF1FE48DFF1F16
:101D100007B502AB012103F8010D1846FFF79AFF42
:101D20000EBD70B50F4B1B78DBB10F4CA5680126BB
:101D300026714DB16B880026667304202B802946DE
:101D4000FFF7DCF8A66009E000F02CF8014620B1AE
:101D500004206573FFF7D2F800E06673024B00229F
:101D60001A7170BDE48DFF1F148FFF1F38B50C4C26
:101D700025799DB9A16831B14B8804200B80FFF70C
:101D8000BDF8A56038BD00F00DF8014620B1042073
:101D9000BDE83840FFF7B2B80123637338BD00BF18
:101DA000148FFF1F72B60C4A1168B1FA81F30B2B26
:101DB00002D962B6002070474FF0004020FA03F0CD
:101DC00021EA0001116062B6044948225343C81851
:101DD0000022CA50426070471884FF1FA080FF1F76
:101DE0000C4B4822C31AB3FBF2F30B2B11D80A4A4F
:101DF000127822B1094A12780AB1FFF73DB872B6DB
:101E0000074A4FF0004121FA03F3116819431160AA
:101E100062B67047A080FF1FC48DFF1FE48DFF1FB7
:101E20001884FF1F024B1A6801321A60704700BF06
:101E3000AC8FFF1F38B50B4C25462368580301D5DE
:101E4000FFF79CF82B68590501D5FFF7B5FD2B6806
:101E50001A0501D501F0BEF92368DB04EDD5FEF7C4
:101E60005DFFEAE73480044008B5FFF7E3FF024B6B
:101E700010221A80704700BF002005407047034AB7
:101E80001368181810601846704700BF1C84FF1FA5
:101E9000002070474FF0FF3070474FF400534B6005
:101EA00000207047012070474FF0FF307047FEE779
:101EB000FEE70078D0F1010038BF00207047012311
:101EC00003707047EFF313839BB9EFF3108098B959
:101ED000EFF3058323B10F2B04D9084A985C01E086
:101EE0004FF48070EFF311833BB1984228BF18463E
:101EF00070474FF0FF30704718467047F0E300E03E
:101F0000084B4FF400021A604FF080721A604FF0D5
:101F100000721A604FF080621A604FF000621A601F
:101F2000704700BF08E100E0212830B521D8042A1D
:101F30001FD8DFE802F00709050B03000B2306E0BA
:101F40000A2304E0082302E00C2300E00923094AE5
:101F500002EBC002526872B61468074D24F4702474
:101F6000146044F0807444EA034345F82010136081
:101F700062B630BD503B0100248FFF1F094B03EBBD
:101F8000C0035B6872B61A6822F0877222F480324E
:101F900042F080721A60044B002243F8202062B69F
:101FA000704700BF503B0100248FFF1F114B10B53D
:101FB0001C68E0041C6004D50F4BDA680AB1DB68CA
:101FC0009847A10404D50C4B1A690AB11B699847BC
:101FD000A20604D5084B1A6E0AB11B6E9847E30699
:101FE00006D5054BD3F8842012B1D3F88430984736
:101FF00010BD00BFA0900440248FFF1F1F4B10B5E1
:102000001C68E0031C6004D51D4B1A680AB11B68EC
:102010009847A10304D51A4B5A680AB15B689847E0
:10202000E20704D5164B1A6C0AB11B6C9847A3073C
:1020300004D5134B5A6C0AB15B6C9847200704D542
:102040000F4B9A6C0AB19B6C9847610704D50C4BF7
:10205000DA6C0AB1DB6C9847220304D5084B5A6E40
:102060000AB15B6E9847630306D5054BD3F8802011
:1020700012B1D3F88030984710BD00BFA0A0044033
:10208000248FFF1F2C4B10B51C6820071C6004D543
:102090002A4B5A6A0AB15B6A9847E10604D5274B76
:1020A0009A6A0AB19B6A9847620604D5234BDA6A9A
:1020B0000AB1DB6A9847230604D5204B1A6B0AB194
:1020C0001B6B9847A00604D51C4B5A6B0AB15B6B7F
:1020D0009847E10704D5194BDA6B0AB1DB6B9847D7
:1020E000A20704D5154B9A6D0AB19B6D98476307FB
:1020F00004D5124BDA6D0AB1DB6D9847A00504D503
:102100000E4BDA6E0AB1DB6E9847E10504D50B4B36
:102110001A6F0AB11B6F9847620504D5074B5A6FB7
:102120000AB15B6F9847230504D5044B9A6F0AB137
:102130009B6F984710BD00BFA0B00440248FFF1FC5
:102140001E4B10B51C68E0071C6004D51C4B9A6838
:102150000AB19B689847210604D5194B5A690AB100
:102160005B699847E20604D5154B9A690AB19B69E9
:102170009847630704D5124BDA690AB1DB699847BF
:10218000200704D50E4B1A6A0AB11B6A9847A107AB
:1021900004D50B4B9A6B0AB19B6B9847A20604D5EA
:1021A000074B1A6D0AB11B6D9847630604D5044BA3
:1021B0005A6D0AB15B6D984710BD00BFA0C00440C6
:1021C000248FFF1F094B10B51C68A2071C6004D5A3
:1021D000074B9A6E0AB19B6E9847E30704D5044BF0
:1021E000DA6F0AB1DB6F984710BD00BFA0D0044082
:1021F000248FFF1F014B1868704700BF00D00340B9
:10220000044B054900221A600A60044A106010223B
:102210001A60704714D0034004D0034000D003403C
:10222000002810B50FDB02024FF4807347F6FF74ED
:1022300000E00A46A24204D9013B012BC0EB020197
:10224000F7D1120A11E0404202024FF4807348F2C3
:10225000FF0400E00A46A24204D9013B012BC0EB77
:102260000201F7D1120AC2F58072013B024942EA2B
:1022700003220A6010BD00BF0CD0034018B1102823
:1022800028BF102000E00120014B1870704700BFEC
:102290002084FF1F10B500234FF4377242FA03F475
:1022A000A14202D80133072BF8D1164A42FA03F2B1
:1022B00002EB5102B2FBF1F101394FF6FF7291428C
:1022C00028BF1146C21E012A06D80F4A0F4C002013
:1022D000106020600E480FE0421F012A06D909282D
:1022E00004D00A2802D01438032809D8094A0A4C15
:1022F000002010602060094843F00803016013606B
:1023000010BD00BF006CDC0200900340049003404D
:10231000089003400080034004800340088003408D
:10232000212810B518D80D4A52F8303093F8804261
:102330003CB1012211B183F8802010BD83F8002147
:1023400010BD02EBC00043681A6811B142F00302ED
:1023500001E022F002021A6010BD00BF503B0100F4
:10236000212805D8034B53F8303093F8000270470A
:1023700000207047503B0100212816D80B4A02EB81
:10238000C00301295B6852F8302004D182F8801222
:102390004FF4A27208E0002082F8800211B94FF4D5
:1023A000807201E040F203121A607047503B010056
:1023B000282838B50A4604464E4B0FD11B780B2B04
:1023C00003D8C3F10C039A4003E00C2B01D00C3B63
:1023D0001A411046BDE8384000F002BC19780125CA
:1023E000002A05FA01F301DC002102E09A4205D33C
:1023F0002946FFF795FF2046294676E0C31E012BAC
:1024000001D83D4B06E0192801D0202801D13B4BD3
:1024100000E03B4B1B680133534323FA01F3E11EF9
:102420001D2959D8DFE801F00F151B215858272D19
:1024300058585858585858585833393F4558515893
:1024400058585858584B2F4A13604FF451722E4B1E
:1024500040E02E4A13604FF451722D4B3AE02D4A62
:10246000136040F244422C4B34E02C4A136040F29B
:1024700044422B4B2EE02B4A136040F244422A4B3D
:1024800028E02A4A136040F24442294B22E0294ABC
:10249000136040F24442284B1CE0284A136040F28B
:1024A0004442274B16E0274A136040F24442264B31
:1024B00010E0264A136040F24442254B0AE0254AC8
:1024C00013604FF45172244B04E0244A1360244BF0
:1024D0004FF451721A6038BD7F2A2046D4BF0021C4
:1024E0000121FFF71DFF20460121BDE83840FFF71D
:1024F00043BF00BF2084FF1F0890034008800B40AB
:10250000088003401090034030900440189003402E
:1025100034900440488003401CC004403080034095
:1025200010C00440208003400CB0044028800340C9
:1025300010B004403880034014C004404080034081
:1025400018C004401080034004B0044018800340C9
:1025500008B0044010800B4048A0044018800B4095
:102560004CA004402DE9F04107460E469046082451
:10257000012505EA08013846FFF7D2FE0121304661
:10258000FFF7CEFE002130466D00FFF7C9FE013C8B
:10259000EDB2EED1BDE8F0812DE9F04107460E46DF
:1025A00090460824802505EA08013846FFF7B8FE62
:1025B00001213046FFF7B4FE00213046FFF7B0FEA0
:1025C0006D08013CEFD1BDE8F08112B91A46FFF762
:1025D000C9BF1A46FFF7E0BF2DE9F04180460F461C
:1025E00008240025012638460121FFF799FE4046C0
:1025F000FFF7B6FE00B13543002138467600FFF7FD
:102600008FFE013CF6B2EED12846BDE8F0812DE9FF
:10261000F04180460F4608240025802638460121D7
:10262000FFF77EFE4046FFF79BFE00B135430021D9
:102630003846FFF775FE7608013CEFD12846BDE825
:10264000F0810AB9FFF7C8BFFFF7E1BF72B60C4BC4
:102650000C491A680C4BD3F88830096862B64901F6
:1026600002D5322A88BF0133C2F5BB32FF32602166
:10267000B2FBF1F24FF47A7000FB0320704700BF09
:1026800018E000E004ED00E0248FFF1F70B5044661
:10269000FFF7DCFF05466CB140F2E736FFF7D6FFE7
:1026A000401BB04203D9013C04D005F57A7500F017
:1026B000B7FAF3E770BD10B5FFF722FC154B164AC9
:1026C000164C00204BF6FF711860596028231360E8
:1026D000936013619361136293621363936309229E
:1026E00022600F4C20606160A360236144F8042CD9
:1026F0000C4C20600C4801600C490B608B600C4B4B
:102700001A6000F029F90420FFF7C0FFBDE810406F
:10271000FEF75ABF048003400C8003400080034052
:102720000490034004800B4008800B400C800B4059
:1027300000800B4070B50E2405464C4303E0013C7D
:1027400001D1002070BD2B78002BF8D101E0013CB5
:10275000F7D02B78002BFAD0FFF778FF064601E080
:10276000013CEED02B78002BFAD1FFF76FFF801BD6
:1027700070BD70B50E2405464C4303E0013C01D109
:10278000002070BD2B78002BF8D001E0013CF7D081
:102790002B78002BFAD1FFF759FF064601E0013CE8
:1027A000EED02B78002BFAD0FFF750FF801B70BDC6
:1027B00021280BD8064B53F8300000F5007011B1FA
:1027C0001146FFF7B7BF1146FFF7D3BF0020704790
:1027D000503B0100002300E00133C25C002AFBD122
:1027E0001846704710B50023B0FBF2F402FB14004A
:1027F000092801D8303000E03730C85420460CB1E9
:102800000133F1E7CA185470224605E0885CCC5CBD
:102810008C54C8540132013B9A42F7DB084610BD84
:10282000031E10B50C4603DBBDE81040FFF7DABF0E
:102830002D2001F8010B5842FFF7D4FF204610BDB0
:10284000F0B50F4687B016461C463A463346054655
:10285000074901A80AF0AEFC284608F05BFA0246D8
:102860000B46204601A90AF0A5FC204607B0F0BDA2
:10287000603C0100F0B53048304903681B06FCD4C9
:102880000B6813F08002F8D172B62D4B197800292D
:1028900050D02C4908684F688E68CD680C6938188C
:1028A000143180190968401900194018C0F34E000E
:1028B000254940F400400860C86A0F6B4E6B8D6B71
:1028C000CC6B38184031801909684019001940183C
:1028D000C0F34E001D4940F40040086001F10811AA
:1028E000143151F8140C51F8107C51F80C6C51F85B
:1028F000085C51F8044C096838188019401900190F
:102900004018C0F34E00124940F400400860C86A05
:102910000F6B4E6B8D6BCC6B38184031801909688A
:10292000401900194018C0F34E000A4940F4004015
:1029300008601A7062B6F0BD24B0034024B00B40AA
:10294000B08FFF1F38B003402CB0034030B00340BD
:102950002CB00B4030B00B40224B60221A70E122A9
:102960005A70214B214A1978214B082901D10121A4
:1029700002E00A2907D13921116013221A601D4B88
:1029800019605A600BE00C291A4901D1352000E08A
:102990003D20106012221A60174B08601A60174B16
:1029A00017495B78174A03B101230B6013600E4B84
:1029B000154A5978154B012901D880210CE00429CA
:1029C00001D8842108E0082901D8852104E01029D4
:1029D00001D8862100E0872111601960074B012290
:1029E0001A707047004007402184FF1F08B0034061
:1029F0000CB0034008B00B400CB00B40B08FFF1F71
:102A000020B0034020B00B4024B0034024B00B4062
:102A10000D4B5A7858B1AAB9012159701B7823B1CE
:102A20000A4B1A6003F500231A60FFF795BF4AB1FD
:102A300058701B78002BF8D0044B186003F5002366
:102A40001860F2E7704700BFB08FFF1F24B003404B
:102A50000C2810B503D91023102807D809E00A283C
:102A600006D8082894BF08230A2302E0184600E08D
:102A70000C23DCB2084A0949201A90700878834276
:102A800009D013780C7013B1054B00221A60BDE811
:102A90001040FFF761BF10BDB08FFF1F2184FF1FE3
:102AA00024B0034010B5114B1B7804460BB1FFF75F
:102AB000E1FE012C0E4A01D8002302E0042C02D8CA
:102AC000042313600EE0082C03D8052313600823A9
:102AD00008E0102C03D806231360102302E007231C
:102AE00013602023034A537010BD00BFB08FFF1F37
:102AF00024B003402184FF1F0D282DE9F0410FD998
:102B0000172801D80E380AE0A0F11A03052B01D8C6
:102B1000093804E0A0F12203062B50D81838C0B2BF
:102B2000284B1C5C284B1B780BB1FFF7A3FE72B639
:102B3000220617D4254D244E01272C60F77062B66B
:102B400072B62B6813F0800F1F4B04D0204A106818
:102B50000022DA7026E0F378002BEED062B600F0A7
:102B60005FF8EDE704F040071A4D174EFFB204F08E
:102B70003F044FF00108184B1A6817B122F01002F9
:102B800001E042F010021A602C6086F8048062B600
:102B900072B62B6813F0800F0B4B09D00F4A1068E8
:102BA00000221A7162B69B7840FA03F0BDE8F0810A
:102BB0003379002BDFD062B600F032F8E8E700206E
:102BC000BDE8F081693C0100B08FFF1F00B00340F9
:102BD00010B0034000B00B400CB00B4010B00B40E5
:102BE0000B4B1A6842F480521A600A4B5A780A4B0F
:102BF0000AB1802200E0C0221A7040F6FF739842AA
:102C0000A8BF1846054B20EAE0701880704700BF47
:102C10002C800440B08FFF1F21C00C4000C00C402E
:102C20007047FFFF024A1378DB07FCD5704700BFEF
:102C30000100024030B5194B85B06C4603F1100518
:102C400018685968224603C20833AB421446F7D1CC
:102C5000134B1B7803F00203DBB2BBB1114B802294
:102C60001A7033221A710322DA7072B60E4C6B4658
:102C700043F001032046984762B6237813F07003AF
:102C800004D0237008E0013B03D105E0044944F679
:102C900021630A78D207F6D505B030BD803C01002B
:102CA000010002400700024000000240B0F5006F42
:102CB00010B5044609D2064B1B78D90701D4FFF79B
:102CC000B9FF04F1A054207810BD002010BD00BF52
:102CD0000100024040F2FE73984210B5044609D844
:102CE000054B1B78D80701D4FFF7A4FF04F1A054CB
:102CF000208810BD002010BD0100024040F2FC738E
:102D0000984210B5044609D8054B1B78DB0701D45F
:102D1000FFF790FF04F1A054206810BD002010BD03
:102D20000100024070B50F4B1B788E18DA0705467C
:102D30000C4601D4FFF77EFF04F1A053B6F5006FF7
:102D400034BF32464FF400622C1B06E013F8010B2F
:102D5000E11801F16C4101F8010C03F16C41914261
:102D6000F4D370BD01000240024B187800F001005E
:102D7000704700BF01000240B0F5006F38B504464F
:102D80000D460FD2084B1B78D90701D4FFF752FF2D
:102D900004F1A0542378AB4204D02570BDE838403C
:102DA000FFF740BF38BD00BF0100024038B540F218
:102DB000FE73984205460C4620D8114B1B78D80765
:102DC00001D4FFF737FF15F0010F05F1A05304D12F
:102DD0001A88A24212D01C800CE01A78A24202D0BB
:102DE0001C70FFF71FFF05F1A055240A6B78A34262
:102DF00004D06C70BDE83840FFF714BF38BD00BF89
:102E00000100024038B540F2FC73984205460C467A
:102E10003AD81E4B1B78DB0701D4FFF70BFF15F0E8
:102E2000030205F1A05302D0022A13D104E01A686C
:102E3000A24229D01C6023E01A88A24202D01C8042
:102E4000FFF7F0FE05F1A055240C6B88A3421BD0C0
:102E50006C8015E01A78A24202D01C70FFF7E2FEE7
:102E600005F1A055230AB5F801209A4203D0A5F830
:102E70000130FFF7D7FEEB78240EA34204D0EC70AC
:102E8000BDE83840FFF7CEBE38BD00BF01000240AC
:102E9000B1F5006FF8B506460F4614460D464ED202
:102EA000274B1B78DA0701D4FFF7C4FE40F2FF730B
:102EB0009C4288BF4FF400643A199A423DD9C7F545
:102EC00000643AE015F0030317D1032C17D9737887
:102ED000B27831781B0243EA0243F27841EA026297
:102EE0001A4305F1A05304361968914202D01A60C2
:102EF000FFF798FE0435043C1FE0022B11D1012C92
:102F00000FD0727816F8023B43EA022205F1A05373
:102F10001988914202D01A80FFF784FE0235023CE4
:102F20000BE005F1A05316F8012B1978914202D05D
:102F30001A70FFF777FE0135013C002CC2D1F8BDB5
:102F4000010002401FB572B6124B70221A70124A6D
:102F5000412111700F2102F8011C80221A701A7889
:102F60001206FCD562B60D4B01A918680A22FFF7BC
:102F700039FC0B48002301AA9A5C2AB100EB4301FB
:102F800001330A2B4A80F6D10133054A5B001370E6
:102F900005B000BD000002400700024008000240EA
:102FA0002484FF1F144B1A6842F400621A60134A0B
:102FB0000023137053709370D3701371104A40F252
:102FC000133111604FF4517151600E4AC0F3443116
:102FD0001170C0F3471100F01F0051709072937090
:102FE0001374094B2C221A70084B40221A70084B9C
:102FF0004FF400421A60704734800440B58FFF1FC1
:103000000CB0044000B0064003B006402FE400E0DE
:1030100004E100E0134A137800F0030103F0EC032D
:103020000B43410748BF43F01003137000F00F0338
:10303000042B04D10C4B1A7842F040021A700B4A50
:103040001378C10603F0EF0348BF43F01003137079
:10305000054A1378810603F0EF0348BF43F01003DD
:103060001370704702B0064006B0064005B0064037
:103070000D4B1B68180510B503D410BDFFF7D0FD2C
:1030800000E00A4C2379094A002BF7D108494FF494
:1030900000400860074908480B7040F203110160C6
:1030A00041601370537010BD34800440B58FFF1F12
:1030B00084E100E003B006400CB004401A4B1B68EA
:1030C0001A052DE9F04106462BD5184D184FAC785E
:1030D000DFF864800134272C88BF002415E0FEF758
:1030E000F1FE40280DDC3B781B060ED5EB78013352
:1030F000272B88BF0023EA18527988F80020EB704C
:1031000003E0FF2801DDFFF78BFDEA78074BA242C1
:10311000E5D01A19567101221A719C70054BAC2228
:103120001A70BDE8F08100BF34800440B58FFF1FE6
:1031300004B0064003B0064007B0064038B5451855
:10314000044603E014F8010BFFF7B8FFAC42F9D1D5
:1031500038BD10B5034C01E0FFF762FD2379002B69
:10316000FAD110BDB58FFF1F034A107853789842EB
:1031700038BF4030C01A7047B58FFF1F084A11781A
:103180005378994208D001333F2B88BF0023D118D0
:1031900091F82D00537070474FF0FF30704700BF1B
:1031A000B58FFF1F074A11785378994207D0013332
:1031B0003F2B88BF0023D31893F82D0070474FF0A2
:1031C000FF307047B58FFF1F014B5A781A70704758
:1031D000B58FFF1F10B5204B1B7803F02003DBB227
:1031E00073B11E4B1E4A18781378517801333F2B68
:1031F00088BF00238B4203D0D11881F82D001370B3
:1032000018490B7818465BB2002B14DA124B1B7866
:103210001B0610D5124A9478D3789C4202D16C23B5
:103220000B7008E00133272B88BF0023D1184C799D
:103230000A490C70D37000F04003DBB25BB1064B5F
:103240001B7803F04003DBB22BB1054B00221A714F
:10325000044B2C221A7010BD04B0064007B0064083
:10326000B58FFF1F03B006402DE9F041002407464B
:103270000D4626463B190A2219792846002300F0FC
:10328000EDFD2B6880462E211B68284698470134A7
:103290004044032C0644EDD12846F9790A22002344
:1032A00000F0DCFD8019BDE8F081054A10B5002171
:1032B000044640F8042B042209F0ECFC204610BD23
:1032C000F03C010030B58371044D9DF80C30056071
:1032D000044601714271C37130BD00BFF03C010072
:1032E000014A416002607047F03C0100024A0260FE
:1032F0000A684260704700BFF03C01000B68436001
:1033000070474160704708B5031D042208461946FE
:1033100009F06EFBD0F1010038BF002008BD00BFEE
:10332000044B054A1A6000221A715A719A71DA71B7
:10333000704700BF2C90FF1FF03C010010B5044601
:1033400000F022FF204610BD03480449044A002330
:1033500000F8083F09F01CB83490FF1F3D3300000F
:103360000084FF1F10B50446006809F06DF8204680
:1033700010BD38B504460D460068013109F0F4FC73
:1033800010B184E82100012038BD43688B4210B59C
:10339000044600D306E0FFF7ECFF20B1A3680BB9A9
:1033A00022681370012010BDF8B504460F4615467B
:1033B00022B9036803B11A7000230BE01146FFF72E
:1033C000E4FF064640B9206810B109F03DF82660D8
:1033D00000236360A36004E0A560206839460AF01A
:1033E0007FF82046F8BD002310B504460360436013
:1033F0008360037300F06CFC204610BD38B50023D9
:10340000044603604360836003730D4639B1084688
:10341000FFF7E0F9294602462046FFF7C5FF2046A0
:1034200038BD38B5054600680C4660B16A688B68DF
:103430009A4206D309680AF053F8A368AB600023E8
:103440000AE009F001F823682B6063686B60A368E9
:10345000AB60002323606360A36038BD002310B518
:1034600004460360436083600373FFF7DAFF20467E
:1034700010BD002310B504460360436083600373EE
:10348000FFF7CFFF204610BD81420B4603D00968ED
:103490009A68FFF789BF7047002310B504460360A0
:1034A000436083600373FFF7EFFF204610BD88423F
:1034B00010B5044601D0FFF7B4FF204610BD884286
:1034C00010B5044601D0FFF7ACFF204610BD38B55B
:1034D00005460C4641B10846FFF77CF921460246F5
:1034E0002846FFF761FF00E0A960284638BD10B507
:1034F00000238AB0044603604360836003736B4615
:103500000846911CFFF79CF901462046FFF7DFFFB4
:1035100020460AB010BD10B500238AB004460360EF
:10352000436083600373084601A9FFF75BF92046F7
:1035300001A9FFF7CCFF20460AB010BD10B500234B
:103540008AB004460360436083600373084601A9A0
:10355000FFF766F9204601A9FFF7B9FF20460AB038
:1035600010BD10B5002386B004460360436083603D
:103570000373084601A9FFF735F9204601A9FFF7B3
:10358000A6FF204606B010BD10B5002386B0044645
:103590000360436083600373084601A9FFF740F9A5
:1035A000204601A9FFF793FF204606B010BD13B5D2
:1035B0000023044603604360836003730A220846C5
:1035C00001A9FFF70FF9204601A9FFF780FF204668
:1035D0001CBD10B5044600F07BFB204610BD07B5AE
:1035E00000238DF80410012201A98DF80530FFF7A2
:1035F000DBFE0EBD002310B504460360436083600C
:103600000373FFF7ECFF204610BD70B504460E466D
:1036100085685AB155192946FFF7B7FE30B12068C1
:10362000A3683146C01809F05BFFA560204670BD55
:103630000B4609689A68FFF7E8BF38B505460C469F
:1036400039B10846FFF7C6F8214602462846FFF77B
:10365000DCFF284638BD13B5002304468DF804105E
:10366000012201A98DF80530FFF7CFFF20461CBDD0
:103670001FB504460A22084601A9FFF7D1F801A8A0
:10368000FFF7A8F801A902462046FFF7BEFF204633
:1036900004B010BD1FB504460A22084601A9FFF771
:1036A000A1F801A8FFF796F801A902462046FFF706
:1036B000ACFF204604B010BD1FB504460A220846E0
:1036C00001A9FFF7ADF801A8FFF784F801A90246A8
:1036D0002046FFF79AFF204604B010BD1FB50446F0
:1036E0000A22084601A9FFF77DF801A8FFF772F842
:1036F00001A902462046FFF788FF204604B010BD0E
:1037000010B588B0044602226B4608460421FFF734
:1037100097F86846FFF75EF8694602462046FFF7CD
:1037200074FF204608B010BD0B4610B509689A68B2
:103730000446FFF76AFF204610BD38B505460C4623
:1037400039B10846FFF746F8214602462846FFF7FA
:103750005CFF284638BD38B5044608460D46FFF7DD
:1037600039F8294602462046FFF74FFF204638BD6C
:1037700010B50446FFF76FFF204610BD10B5044694
:10378000FFF776FF204610BD10B50446FFF794FF03
:10379000204610BD10B50446FFF7A0FF204610BD1F
:1037A00010B50446FFF788FF204610BD10B504464B
:1037B000FFF794FF204610BD10B50446FFF7A0FFA9
:1037C000204610BD10B519460446104607F0D8FD36
:1037D00001462046FFF794FF204610BD03680A68A3
:1037E0000BB15AB905E022B1896811B11078404295
:1037F00070473BB1806830B1187870471846114661
:1038000009F080BD1846704708B582688B689A42F7
:1038100006D1FFF7E3FFD0F1010038BF002008BD5B
:10382000002008BD826808B50B461AB901B103E053
:10383000012008BD11B90368187802E0006809F09A
:1038400061FDD0F1010038BF002008BD08B5FFF7C9
:10385000C5FFC00F08BD08B5FFF7C0FF0028D4BFE3
:103860000020012008BD08B5FFF7B8FF0028CCBF35
:103870000020012008BD08B5FFF7B0FFC043C00F0E
:1038800008BD8842F8B514D083688A68934212D183
:103890007BB106680D68002408E00CF099FC07462F
:1038A000285D0CF095FC0134874204D1305D00287E
:1038B000F3D10120F8BD0020F8BD10B58B688468F5
:1038C000E41AA2420CD8006868B1096851B18018A6
:1038D0001A4609F063FED0F1010038BF002010BD88
:1038E000002010BD084610BD82688B689A4202D342
:1038F0000022FFF7E2BF0020704708B582688B689E
:103900009A420CD3006868B1096851B1D31AC01843
:1039100009F0F8FCD0F1010038BF002008BD0020FC
:1039200008BD084608BD836899423CBF03685A54E5
:1039300070478368994201D2006818B90248002391
:1039400003707047401870475490FF1F8368994276
:1039500003D2006810B1405C704700207047FFF749
:10396000F5BF38B50C469AB191B181688B4202D34C
:103970000023237038BDCD1A013A0168954228BF53
:103980001546C91820462A4609F05EFE00236355F5
:1039900038BD83689A4210B506D20468A01809F0B1
:1039A00031FC08B1001B10BD4FF0FF3010BD0022EC
:1039B000FFF7EFBF83689A4210B507D20468096821
:1039C000A01809F0F5FF08B1001B10BD4FF0FF3043
:1039D00010BD0022FFF7EEBFF8B583689A42044697
:1039E00002D34FF0FF30F8BD0368551C00225F5D25
:1039F0005A550668304609F059FE77550028F0D030
:103A00002368C01AF8BD8268013AFFF7E5BF2DE9C7
:103A1000F04115468A680F46CAB18368BBB19A4225
:103A200015D806689D4228BF5D1E30464FF0FF3412
:103A300006EB050808E0396809F0BAFF48B1831BB6
:103A4000AB4298BF1C4601304045F4D901E04FF02D
:103A5000FF342046BDE8F08182688B68D21AFFF7F8
:103A6000D6BF9A42F8B504460D4602D911461A4609
:103A70000B460020A060AE682060B24260602073F8
:103A80000CD8B34238BF1E462B689F5D98552968F5
:103A900020468918FFF71BFD2B689F552046F8BD6F
:103AA00010B58B680446FFF7DCFF204610BD0368A5
:103AB00010B543B103E08C4208BF03F8012C13F8A2
:103AC000014B002CF7D110BD2DE9F74FD0F808A01D
:103AD00004460F461646BAF1000F7CD0D1F808B064
:103AE000BBF1000F77D093680568CBEB0308B8F102
:103AF000000F0ED105E03168B26808F0ABFFB36883
:103B0000ED182846396809F053FF05460028F2D120
:103B100061E001DAA94616E00B68D14622E0C5EB68
:103B20000A0B294648465A46D94408F093FF4846AE
:103B30003168B26808F08EFFB368BD689944A36825
:103B400043445544A3602846396809F031FF824652
:103B50000028E4D14846294609F0C2FC3BE000EBCE
:103B60000B05C14419462846019309F021FF019B2A
:103B70000028F4D1D1452ED0636899450ED920464E
:103B80004946FFF7F6FB30B308E0002A23DB204666
:103B90003946FFF73CFF051E05DA1CE0A2684FF02E
:103BA0000009013AF1E7BA682168A368AA188918E0
:103BB00001EB08009A1A09F007F8A3682268434449
:103BC000A36002F803902068B2683168401908F0D9
:103BD00041FF6A1ED9E72046BDE8FE8F83689942FF
:103BE00003D20368816000225A54704738B50B46EF
:103BF00081688B42044612D28AB1D018884288BFAD
:103C0000C3EB01028D1A2168A560D218C818891863
:103C1000EA1A08F0D9FF2268A3680021D15420468F
:103C200038BD38B50468054644B103E00CF0D0FA5D
:103C300004F8010C14F8010B0028F7D1284638BD10
:103C400038B50468054644B103E00CF0CFFA04F837
:103C5000010C14F8010B0028F7D1284638BD2DE9D6
:103C6000F0410768044627B3866816B3B846454650
:103C700008F10108287808F0D5FB0028F7D1013EAB
:103C8000BE19307808F0CEFB28B90136721BBD4250
:103C9000A26007D902E0AE4209D2F6E738462946CB
:103CA00008F0D8FE2268A3680021D15401E0013E4B
:103CB000E7E72046BDE8F081006808B108F06EBB78
:103CC0007047006810B100210AF0E4BE0020704780
:103CD00038B5054608460C46FEF77CFD21460246EF
:103CE0002846BDE83840FFF75FBBFFFF08B1014B36
:103CF000186070475890FF1F014B1860704700BF55
:103D00005890FF1F0C4B0D4A1B680D48002B08BF35
:103D1000134693FBF0F200FB12330A48424344F28D
:103D2000A71000FB03200028B8BF00F10040024BA1
:103D3000B8BF0138186070475890FF1F24D95B073F
:103D40001DF30100ECF4FFFF10B5044630B1FFF79E
:103D5000D9FFB0FBF4F303FB140010BD10BD884283
:103D600010B5044603DA081AFFF7EEFF04192046DF
:103D700010BD10B5029C401AE41A4443521A94FB39
:103D8000F2F0C01810BD704741EA0020704700BF34
:103D900008F052BB08F050BB08F056BB08F054BB0B
:103DA000F8B506460C468F18002506E0336814F86F
:103DB000011B1B68304698472D18BC42F6D1284697
:103DC000F8BD2DE9F04100258AB0074688468C6889
:103DD0002E4611E02B46404601A92122FFF7C1FDE6
:103DE0003B68202C34BF224620225B68384601A95C
:103DF000AD18A41A98473618002CEBD130460AB0FB
:103E0000BDE8F08107B5054B1B88ADF804300368A9
:103E100001A95B68022298470EBD00BFF83C010073
:103E200008B503685B689847002008BD0EB403B569
:103E300003AA52F8041B01920CF016FABDE80C40DC
:103E400003B070470EB403B503AA52F8041B0192E5
:103E50000CF00AFABDE80C4003B07047F0B5054617
:103E60008BB022B90368C9B21B6898472CE0012ABD
:103E700008BF0A2221B930228DF82520212413E021
:103E80002124B1FBF2F002FB1011C9B2092901D8BB
:103E9000303100E037310AAF3E1906F8241C0146E4
:103EA00010B1013CE4B2ECE733B1013C0AAAE4B240
:103EB00013192D2203F8242C2B6801AF5B682846C8
:103EC0003919C4F1220298470BB0F0BD002902DA7B
:103ED00049422D2300E000230A22FFF7BFBF2DE94E
:103EE000F347074691469A4610461946002200239A
:103EF0009DF8284007F0D4F920B10AF1004A4FF0AC
:103F0000010800E0804600260022314B0AE01046FE
:103F100019462DA3D3E9002306F050FF01360246CF
:103F20000B46F6B2A642F2D14846514606F094FD41
:103F30000D46044607F004FA814643463846494692
:103F40000A22FFF78BFF8046002E37D0484606F046
:103F5000BFFE072E28BF07260B46024629462046ED
:103F600006F078FD01362E238DF80030F6B24FF0C2
:103F700001091BE00022174B06F020FF0D46044606
:103F800007F0DEF902AA02EB0903C0B200F1300229
:103F900003F8082C06F0ACFE09F1010902460B46B5
:103FA000204629465FFA89F906F054FDB145E1D172
:103FB0003B6838465B6869464A4698474046BDE8D4
:103FC000FC8700BFAFF300809A9999999999B93FFE
:103FD0000000E03F0000244008461146FDF73ABECD
:103FE0000846FDF795BEFDF79CBEFDF7B1BDFDF798
:103FF00087BDFDF7CBBDFFFF044B00221A711A737A
:10400000034A4FF47A7199601A6070475C90FF1F01
:10401000183D010008B5034B01221A60024B1B68D2
:10402000984708BD0C7103406C90FF1F08B5034B07
:1040300001221A60024B5B68984708BD1C7103405F
:104040006C90FF1F08B5034B01221A60024B9B685E
:10405000984708BD2C7103406C90FF1F08B5034BB7
:1040600001221A60024BDB68984708BD3C7103408F
:104070006C90FF1F054B1A6842F400021A60044B53
:1040800000221A60034B01221A7470473C800440DE
:10409000007003406C90FF1F054B01221A60054B16
:1040A0001A6822F400021A60034B00221A74704747
:1040B000007003403C8004406C90FF1FF0B54478D2
:1040C000104D114F23015A194260104A9E18866004
:1040D00004F144060673066947F8246000249C50E6
:1040E000595103219950037B5A11920002F1604209
:1040F00002F5614203F01F03012101FA03F313608B
:10410000F0BD00BF007103406C90FF1F08710340B9
:10411000F8B50D4B1B7C06460F460BB9FFF7AAFFFF
:104120000024094D05F11102A25C42B974703046B9
:1041300039462C19FFF7C2FF01206074F8BD013425
:10414000042CEED10020F8BD6C90FF1F037B0122F0
:10415000591103F01F0302FA03F3094A42F8213010
:104160008268002313604178064A511811324B745B
:10417000995C21B90133042BFAD1FFF78DBF704749
:1041800080E100E06C90FF1F037810B504460BB18E
:10419000FFF7DCFF0023237010BD037870B50446E1
:1041A0000D4616461BB1FFF7D1FF00232370256192
:1041B00020463146FFF7ACFF10B10123237000E029
:1041C0002070207870BD00BF0A4B4FF0FF321F29CE
:1041D00028BF1F2110B59A60186019714FF48172C1
:1041E000002303E002FB0304637001338B42F9D127
:1041F00010BD00BF8490FF1F30B572B6104B9A6897
:104200001879B2FA82F1814202D362B6002030BD41
:104210004FF0004020FA01F022EA00029A601A7B77
:104220000132D2B21A7362B64FF4817041431C68F6
:10423000012565546018597B914238BF5A7330BDCF
:104240008490FF1F427872B60378012B02D9013B9C
:1042500003700AE0064B4FF0004121FA02F19A6820
:104260000A439A601A7B013A1A7362B6704700BF1C
:104270008490FF1F30B5C3680EE0187A90420AD1CF
:1042800058685C7A006950F8245025B940F8241029
:10429000087801300870DB68002BEED130BD437A1E
:1042A00099424FF0000305D2026952F8210042F80A
:1042B000213070471846704738B5437A994201D388
:1042C000002418E0036953F82140002243F821201C
:1042D000002CF5D02378012B0DD9FFF78DFF054673
:1042E00028B10230A11C4FF4807208F0B3FB237890
:1042F000013B23702C46204638BD10B54168427AF8
:104300004B7A9A420ED872B60268D36813B9D0605D
:1043100004E02346DC68002CFBD1D8600123137233
:104320000B7262B610BD074B9A7B4AB9064AFF2151
:104330001170064A4FF08041012011609873704758
:10434000002070478490FF1F5EE400E008E100E079
:10435000034B4FF080421A60024B00229A73704761
:1043600088E100E08490FF1FF8B5164B164D1A68DF
:1043700042F080721A60154B1A6842F001021A600E
:10438000134B2E681C690FE0237A63B121682F68F4
:104390000B68204698472B68E288DB1B1B09934279
:1043A000A38088BFE3806469002CEDD1064B1A68B6
:1043B000074B921BD98A12098A429A8288BFDA82F5
:1043C000F8BD00BFFCED00E0041000E0001000E0CC
:1043D0008490FF1F10B5084614461146FEF7AEFE46
:1043E000204610BD084608B5FEF768FE012008BD4E
:1043F000FEF7EABEFEF7ADBEFEF7C0BEFEF7D2BEC8
:10440000FEF7B2BEFEF734BE480800F1376000F593
:10441000D830B0FBF1F0FEF7C5BD480800F13760B9
:1044200010B500F5D830B0FBF1F01446FEF7BAFD38
:104430002046BDE81040FEF7EDBD10B50846144615
:104440001146FDF70AFA204610BD084608B5FDF7EB
:10445000B7F9012008BDFDF793BAFDF755BAFDF78E
:1044600069BAFDF77BBAFDF75BBA0846FDF790B96C
:10447000FDF768B9480800F1376000F5D830B0FBA7
:10448000F1F0FDF7EFB8480800F1376010B500F51E
:10449000D830B0FBF1F01446FDF7E4F82046BDE853
:1044A0001040FDF721B9FFFF044B00221A711A7367
:1044B000034A4FF47A7199601A6070479C90FF1F0D
:1044C000383D0100044B00221A711A73034A4FF45D
:1044D0007A7199601A607047AC90FF1F703D0100BF
:1044E00010B5084614461146FCF7CCFB204610BD1B
:1044F000084608B5FCF786FB012008BDFCF708BCA0
:10450000FCF7CBBBFCF7DEBBFCF7F0BBFCF7D0BB8A
:10451000FCF752BB480800F1B76000F55840B0FB0B
:10452000F1F0FCF7E3BA480800F1B76010B500F508
:104530005840B0FBF1F01446FCF7D8FA2046BDE82D
:104540001040FCF70BBBFFFF044B00221A711A73DB
:10455000034A4FF47A7199601A607047BC90FF1F4C
:10456000A83D0100704770474171704781717047E5
:104570000171704730B5034D017104460560427109
:10458000837130BDE03D0100084B1A6842F480623F
:104590001A602C334FF000421A60054A11601A6805
:1045A000002AFCDA034B1868C0B2704700C0024012
:1045B00034C0024038C00240054B1A68D10405D40B
:1045C00042F480521A60034A034B1A60704700BFDE
:1045D0003C800440010001380CC00240024B1A68C4
:1045E00042F480521A6070473C80044003F08CBB58
:1045F00038B51A4B1A6842F480521A60184A136888
:104600001268990154BF23F0806323F0C0639A427B
:10461000044613480DD0134A116811F4804F01D09D
:10462000036006E041F4804545F001051560036034
:104630001160607910F1FF3018BF012003F07EFB9C
:104640002379013BDBB2032B9ABF074AD05C0120E0
:1046500003F096FCBDE8384003F0F6BA3C80044015
:104660000CC0024000C00240003E010010B50446EC
:10467000FFF780FF014B2046236010BD103E010074
:10468000002102480A460B46FFF7F0BFCC90FF1FFF
:1046900038B5044601200D4603F050FB002003F01E
:1046A0008FFB002003F06CFC6078E9B2BDE8384075
:1046B000FDF736BE0078C9B2FDF732BEF8B50D463B
:1046C000002114461F460646FFF7E2FF05F01F00D3
:1046D00000F004FC3F190546FFB204E0FF2000F0A3
:1046E000FDFB04F8010BE3B29F42F7D130460121F4
:1046F000FFF7CEFF2846F8BD38B50C460021054629
:10470000FFF7C6FF04F01F0000F0E8FBFF2000F0F9
:10471000E5FB012104462846FFF7BAFF204638BDD5
:10472000F8B50D46002114461F460646FFF7B0FFB8
:1047300005F01F0040F0200000F0D0FB3F190546B7
:10474000FFB203E014F8010B00F0C8FBE3B29F4294
:10475000F8D130460121FFF79BFF2846F8BD70B520
:104760000D46002116460446FFF792FF05F01F0094
:1047700040F0200000F0B2FB0546304600F0AEFBF2
:1047800020460121FFF784FF284670BD2DE9F04146
:104790008379057904460E46AA4234BF17462F4650
:1047A00013B9ED1BEDB200E0002520460021FFF714
:1047B0006FFFA02000F092FBBF198046FFB203E01C
:1047C00016F8010B00F08AFBF3B29F42F8D104E027
:1047D000002000F083FB013DEDB2002DF8D1204612
:1047E0000121FFF755FF4046BDE8F0812DE9F0417A
:1047F0008379057904460E46AA4234BF17462F46F0
:1048000013B9ED1BEDB200E0002520460021FFF7B3
:104810003FFF612000F062FBBF198046FFB204E059
:10482000FF2000F05BFB06F8010BF3B29F42F7D1CB
:1048300004E0FF2000F052FB013DEDB2002DF8D165
:1048400020460121FFF724FF4046BDE8F08138B53E
:1048500000210546FFF71CFFE22000F03FFB01218D
:1048600004462846FFF714FF204638BD38B500211E
:104870000546FFF70DFFE12000F030FB0121044663
:104880002846FFF705FF204638BD38B5002105460C
:10489000FFF7FEFEFF2000F021FB01210446284621
:1048A000FFF7F6FE204638BD7047704770477047E7
:1048B00001234270837020220023C3700271437170
:1048C00083710022002310B501700446C0E9022361
:1048D00010BD7F2934BF0A467F220521FFF73FBF65
:1048E000202928BF20210171704700797047704747
:1048F00010B500210446FFF7FFFE40F0030200213F
:10490000D2B22046FFF72BFF702207212046FFF787
:1049100026FFD4E9022352EA030106D020460A21E9
:1049200004F108020523FFF7FBFE2046FFF78FFF87
:104930002046FFF79BFF20460121FFF7BBFE4FF407
:104940008253013B7FF4FDAF10BD10B5002104463A
:10495000FFF7B0FE2046FFF789FF2046BDE8104074
:10496000FFF775BF10B500210446FFF7C5FE002113
:1049700000F0FD022046BDE81040FFF7F0BE10B584
:1049800000210446FFF7B8FE40F002020021204655
:10499000D2B2BDE81040FFF7E2BE70B50E4600216E
:1049A00004461546FFF7A8FE00F0FC020021204651
:1049B00042F00202FFF7D3FE4FF49653013B7FF41F
:1049C000FDAF31462A462046FFF7E0FE2046012192
:1049D000FFF770FE4FF4F073013B7FF4FDAF002151
:1049E0002046BDE87040FFF765BE38B5002105469A
:1049F000FFF74EFE602000F071FAFF2000F06EFA23
:104A0000012104462846FFF743FE204638BDF8B58D
:104A100006460F46FFF739FFC0F3801504468DB1F7
:104A200017B1C0F342033B7004F020043046072165
:104A30004022E4B2FFF793FE24B130460721202242
:104A4000FFF78DFE2846F8BD0021FFF7E0BF10B547
:104A50000446FFF7CBFE20461721FFF74DFE00F07E
:104A6000010010BD70B50D461446072170221E4688
:104A7000FFF775FEC0F340132B70C0F30013C0F3B3
:104A800080102370307070BDF0B585B00446FFF71C
:104A900084FF194B1A680292029D1E4640F2F317DA
:104AA0000821012320460DF10502FFF707FE10F053
:104AB000300F0BD133680393039B5B1BBB42EFD9D1
:104AC00004E02046FFF791FFE0710CE0631D2046F3
:104AD0000DF106010DF10702FFF7C4FF63799DF8A0
:104AE0000650002BEDD12046FFF73CFF2046FFF794
:104AF000BDFE284605B0F0BDAC8FFF1F37B502AC38
:104B0000054664E902230A216A460523FFF708FEE9
:104B100010216A4628460523FFF702FE2A79284617
:104B20001121202A28BF2022FFF719FE3EBD37B5EC
:104B30000446CDE900230D4611B9C0E9022303E084
:104B4000062922D8012905D1104B2046595D6A4615
:104B5000052303E00D4B6A46595C0123FFF7E0FD96
:104B60000A4B22795D192046A979FFF7F8FD022149
:104B70002046FFF7C1FD2B7B012202FA03F202431C
:104B800002212046D2B2FFF7EAFD3EBD303E0100D1
:104B900010B500210446FFF77BFD502000F09EF980
:104BA000732000F09BF920460121BDE81040FFF77B
:104BB0006FBD10B51D210446FFF79EFD40F00402B5
:104BC0001D212046D2B2FFF7CAFD20461D21FFF766
:104BD00093FD68B92046FFF7DBFF1D212046FFF754
:104BE0008BFD40F004021D212046D2B2FFF7B7FD35
:104BF0001C212046FFF780FD40F03F021C2120468B
:104C0000D2B2FFF7ACFD0123A37110BD10B51D2179
:104C10000446FFF771FD40F006021D212046D2B286
:104C2000FFF79DFD20461D21FFF766FD68B9204670
:104C3000FFF7AEFF1D212046FFF75EFD40F00602A4
:104C40001D212046D2B2FFF78AFD1C212046FFF726
:104C500053FD40F003021C212046D2B2BDE81040B3
:104C6000FFF77DBDF8B50E46002114461F460546E8
:104C7000FFF70EFD06F0070040F0A800202F94BFBC
:104C8000E71904F1200700F029F9FFB203E014F856
:104C9000010B00F023F9E3B29F42F8D1284601212D
:104CA000BDE8F840FFF7F4BC0346002240795A7192
:104CB0007047C07870470A46012102B13F22FFF7D2
:104CC0004EBD062970B505460C46164611D8012181
:104CD000FFF712FD012101FA04F20EB1024301E0D7
:104CE00020EA0202D2B228460121BDE87040FFF757
:104CF00036BD70BD08B50921FFF7FEFC00F00100CC
:104D000008BD08B50921FFF7F7FC00F0010008BD58
:104D100038B50C4606210546FFF7EEFC032C00F0E3
:104D2000F90200D10CE0022C02D142F0040209E0A9
:104D3000012C02D142F0020204E01CB1042C01D18A
:104D400042F0060228460621BDE83840FFF707BDBD
:104D5000062108B5FFF7D0FC00F00600062805D0B4
:104D6000042805D0831E5842584108BD032008BDC1
:104D7000022008BD70B50E4606210546FFF7BCFCB3
:104D80000023022EAB7000F0D70402D144F02004BF
:104D900004E0012E04BFAE7044F008040621224650
:104DA0002846FFF7DCFC06212846FFF7A5FCA042B9
:104DB00002D00020A87070BD012070BD062108B58A
:104DC000FFF79AFC00F02800202804D0B0F1080278
:104DD0005042504108BD022008BD38B50C460021A4
:104DE0000546FFF789FC00F0F3022CB1012C0CBF43
:104DF00042F0080242F00C0228460021BDE838408B
:104E0000FFF7ADBC10B5044601210078FDF7B4FAF8
:104E100060780121FDF7B0FA02F016FF204600216C
:104E2000FFF748FC01212046FFF732FC0520FDF783
:104E30002DFC04214F222046FFF791FC2046032140
:104E4000FFF766FF20460221FFF794FF08B1012318
:104E5000E37000212046FFF78DFF20460221FFF777
:104E6000BCFF1C2100222046FFF779FC702207219D
:104E70002046FFF774FC20464C21FFF72AFD204610
:104E8000FFF7E5FC2046BDE81040FFF7EFBC08B592
:104E90000021FFF731FC00F00803DBB23BB100F06A
:104EA0000400C0B200280CBF0120022008BD184633
:104EB00008BD10B500210446FFF71EFC002100F0DC
:104EC000F7022046BDE81040FFF749BC02F00F0290
:104ED00042EA0112D2B20421FFF741BC084B1A6822
:104EE00042F480621A602C334FF000421A60054A87
:104EF00010601A68002AFCDA034B1868C0B27047C9
:104F000000C0024034C0024038C0024010B5002347
:104F100003710C4B0C22198801230B4207D1094A5B
:104F200019431180518821EA0303538010BD04798D
:104F30005B000134013A04719BB2EED1FF2303718F
:104F400010BD00BFD490FF1F2DE9F84399460379A7
:104F50000B2B0446904636D8CFB238460121FDF7D8
:104F60000BFA1A4D2679AB1944F250621F7105EB0A
:104F700046030C211A82012303FA06F66B881E43AE
:104F8000134B6E801A6801FB08F812F4800201FBD3
:104F900009F1A4F80080618011D1196841F4800101
:104FA00019600C4B4FF6FF7119605A609A6042F617
:104FB000A27243F8042C02F5803243F8042C064B0D
:104FC0004FF480721A602079BDE8F883D490FF1FF7
:104FD0003C8004400460034008E100E04FF40872A4
:104FE0004FF41663FFF7B0BF03790B2B0FD80121E5
:104FF00001FA03F1064B5A881888C9430A40014058
:105000005A8019801AB9034B4FF480721A607047A6
:10501000D490FF1F88E100E00C2359430388994294
:1050200003DB43889942B8BF0B4602790B2A03D8A9
:10503000024901EB42021382704700BFD490FF1F68
:1050400013B504790B2C024617D8B1F5087F04DBA1
:1050500002B0BDE81040FFF7DFBF1388528821EA95
:10506000E1700092B428A8BFB4200021B422FEF75A
:1050700080FE034B03EB4404208202B010BD00BF4E
:10508000D490FF1F07B502790B2A03460BD80749B6
:1050900001EB42021988108A5A88B4230093002336
:1050A000FEF767FE00E000200EBD00BFD490FF1F9A
:1050B00003790B2B07D8054A02EB4303188A0C230C
:1050C00090FBF3F070470020704700BFD490FF1FA3
:1050D00003790B2B06D8044A508840FA03F000F0FD
:1050E0000100704700207047D490FF1F70B5334D0A
:1050F000334C95F90030628842FA03F2D20706D5A4
:10510000E31800211879FDF70BF90C232B7094F8A4
:1051100028206588002354B225E0181945FA00F6C6
:10512000013316F0010F1ED0254C201884F82810EA
:1051300000790121FDF7F4F894F828301F4A137024
:105140005AB204EB42020133118AE26A8A18E2621F
:105150001C4A10680918116042F6A37142F80C1C31
:1051600084F8283070BD991848B20B28D5DD144A50
:10517000D06A82F82810C0F56A3303F5C073B3F51E
:10518000966F05DB4EF660218B42A8BF0B4601E00F
:105190004FF496631818D0620A4A094914681B191B
:1051A0001360094B42F6A3721A60084B984203D968
:1051B0000023CB6281F8283070BD00BFC284FF1F7E
:1051C000D490FF1F0C600340006003407FA90300E0
:1051D0002DE9F04F90F8703087B080460BB9002071
:1051E00070E03A4B1B680593DDF81490036CC3EB39
:1051F0000902836D9A42F2D3436BD3E900ABC36BD0
:105200005246D3E900015B4605F024FCD8E90823A7
:10521000CDE9020105F0D2FDD8E9122305F01CFC0E
:10522000D8E91A4506460F46C8E9126722462B46BA
:1052300006F054F810B1C8E912450CE0D8E918237B
:1052400030463946CDE9002306F02AF818B1DDE9E9
:105250000023C8E91223D8E90623DDE9020105F09D
:10526000ADFDD8E9122305F0F7FBD8E91423064673
:105270000F465046594605F0EDFBD8E90A2305F0E4
:105280009DFD02460B463046394605F0E3FB2246BB
:105290002B4606460F4606F021F850B9D8E91845C6
:1052A0003046394622462B4605F0FAFF08B9344607
:1052B0003D46D8F83830C3E90045C8E914ABC8F812
:1052C0004090012007B0BDE8F08F00BFAC8FFF1FFA
:1052D0002DE9F0471946824614461D461046002324
:1052E0000022DDE9086705F0DBFF002853D13046D6
:1052F00039460022002305F0D3FF00284BD1DDE919
:105300000A010022002305F0CBFF002843D1DDE98C
:105310000A23CAE90267CAE90423CAE90045DAF8A0
:10532000580005F0D5FC00221C4B05F071FE8046AC
:10533000894642464B4630463946CAE9064505F09D
:105340003DFD06460F464B464246CAE90867DDE981
:105350000A0105F05DFEDAF8303080468946012BFF
:10536000CAE90A8917D122462B460020002105F000
:1053700071FB3246CAE906013B460020002105F0D8
:1053800069FB4246CAE908014B460020002105F0AE
:1053900061FBCAE90A01BDE8F08700BF00408F4009
:1053A000F8B50F1E064620DD384605F0A1FC044680
:1053B000B06D0D4605F08CFC02460B462046294692
:1053C00005F026FE04460D462246D6E908012B4686
:1053D00005F0F4FC2246C6E908012B46D6E90A018D
:1053E00005F016FEC6E90A01B765F8BD2DE9F84FCC
:1053F000DDE90A67824614461D46104619463246C4
:105400003B4605F061FF002835D19AF87030CAE9B3
:105410001845CAE91A67002B2DD0DAF838B0DBE955
:1054200000893246404649463B4605F057FF10B1D9
:10543000CBE9006708E04046494622462B4605F086
:105440002FFF08B1CBE90045DAE91267DAE91A451E
:105450003046394622462B4605F040FF00B108E0B1
:10546000DAE918453046394622462B4605F018FF42
:1054700008B1CAE91245BDE8F88F836B2DE9F04108
:10548000D3E90045C0E91245436BD0E91A67D3E977
:1054900000238046C0E914232946204632463B4675
:1054A00005F01CFF00B108E0D8E91867204629463E
:1054B00032463B4605F0F4FE08B1C8E91267BDE884
:1054C000F08138B54B1E5942594190F8703083F045
:1054D0000103994204460D4601D1FFF7CEFF84F83F
:1054E000705038BD38B590F8703004460D46D3B1D1
:1054F000036B994217D0D4E906230020002105F060
:10550000A9FAD4E90823C4E906010020002105F026
:10551000A1FAD4E90A23C4E908010020002105F01A
:1055200099FAC4E90A01256338BD10B5C3630023A5
:1055300080F87030144B826386B0002204464163C9
:10554000CDE900230022114BFFF750FF3223A36562
:1055500020460E99FFF7C6FFDDE90A23CDE90023B7
:10556000DDE90C232046CDE90223DDE90823FFF71E
:10557000AFFE074B1B680593059AA36DD31A2364EE
:10558000204606B010BD00BF00006940000069C0A1
:10559000AC8FFF1FD0E900017047D0E902017047CE
:1055A000D0E90401704790F870007047006B7047B5
:1055B000054A137803F00203DBB2002BF9D0024B4B
:1055C00002221A70704700BF0360064010B50A4BF4
:1055D0001A781C460AB95B782BB1A378064A202BAF
:1055E00003D901230371002010BDD0180133C1700D
:1055F0009370012010BD00BF0491FF1F7047034B43
:1056000093F8240093F82530C01A70470491FF1FC7
:10561000084B93F8252093F82410914206D9991845
:10562000013291F8260083F8252070474FF0FF30B3
:10563000704700BF0491FF1F064B93F8252093F895
:105640002410914203D99B1893F8260070474FF01D
:10565000FF3070470491FF1F70B50D4B1D78144645
:105660001A460DB95B7883B19578C5F121039C4248
:1056700002D9012202711C46054EF01C4019224637
:105680002D1907F0E7F9B57000E01C46204670BD03
:105690000491FF1F38B5104B104C1B7813F02005F8
:1056A0000AD11220FCF76AFCA36CA3B184F8255040
:1056B00094F82400984738BD94F84C300133DBB29D
:1056C000012B84F84C3001D8637823B91220BDE84F
:1056D0003840FCF753BC38BD036006400491FF1FFF
:1056E000002202710273034A4FF47A7181600260F2
:1056F000704700BF503E01000C4B00225A700C4B0B
:10570000196841F0400119600A4B0B491A704FF4B7
:1057100019720A6041F8042C084A272111700421EB
:1057200051712021117180221A7070470491FF1F5E
:1057300034800440026006400CA004400160064032
:1057400010B50C46FFF7D8FF064B64001C70064BE3
:1057500001225A70054BC0221A70054B4FF080721F
:105760001A6010BD006006400491FF1F02600640F1
:1057700000E100E038B5394A137803F01001C9B2EE
:1057800021B903F04002D2B242B92EE010211170CB
:1057900003F04002D2B2002AF3D138BD13F0040363
:1057A0002F4C17D0002384F84D30A370236D03B124
:1057B0009847A2782A4B12B901219970DA70294BC7
:1057C000D0221A70264B284AD9781170012283F80A
:1057D00054203FE084F824300122224B84F84D20ED
:1057E000C0221A7002331B7834E01E4A1E4D117815
:1057F00011F0100118D013F0010311D1184A92F8DA
:1058000054109078884206D953180131DB782B70F8
:1058100082F8541000E02B70124BD0221A7019E05D
:10582000C02313702B7815E00D4C122084F84C1017
:1058300003220E49FCF778FB94F8243029781F2BBB
:1058400008D894F84D202AB1E218013382F82610C6
:1058500084F82430014B02221A7038BD03600640E0
:105860000491FF1F02600640046006409556000048
:10587000034B01224900D9701A709A70704700BF1B
:105880000491FF1F2DE9F041204B12221A70204A8B
:105890000E46117801F02001C9B211B1B423137082
:1058A0000BE019460A7802F02002D3B2002BF9D19E
:1058B000184A5370164BB0221A700024154D164F1B
:1058C000DFF8488013E02B19DB783B70FFF770FEA0
:1058D00098F80030DA0704D5002C14BF032002200A
:1058E0000BE003F01003DBB233B90134E4B2AB7860
:1058F000A342E8D8002000E0042016B1044B802227
:105900001A70044B00221A70BDE8F0810360064053
:10591000026006400491FF1F046006402DE9F04735
:105920001E46354B1446002283F8252083F8242098
:10593000324B12221A70324A107800F02000C0B2A6
:1059400010B1B42313700BE01846027802F0200265
:10595000D3B2002BF9D1284A5370294BB0221A70C8
:105960004900284D41F001012970FFF721FE234B2A
:10597000234A1B7813F0110F04D0802313700020EA
:10598000BDE8F0872CB9002E0CBFA026802616702B
:10599000F5E7012C01D1A82300E0A02313702B7898
:1059A000194FDFF86080DFF8589025464FF0A80ABD
:1059B0000BE0013DEDB2FFF7FBFD012D08BF89F8BB
:1059C00000A098F8003007F8013F012DF1D1FFF752
:1059D000EFFD0B4BB0221A700A4A1078064A611E7E
:1059E00052FA81F181F8260020460EB1802119700B
:1059F00082F82440BDE8F0870491FF1F0360064051
:105A000002600640046006402991FF1F0123FFF752
:105A100085BFC9B2D2B20123FFF780BFC9B2D2B2EB
:105A2000DBB2FFF77BBFC9B2FFF722BF0121FFF74F
:105A300029BFC9B2FFF784BE014B9964704700BF0C
:105A40000491FF1F014B1965704700BF0491FF1FB0
:105A50000148FFF745BE00BF5C91FF1FFFFFFFFF3E
:105A600073B5184C03460E462046194600F0CCFD8F
:105A70002046154900F0C8FD306805F04BF90225B5
:105A800002460B460095204600F0CBFD20460F490C
:105A900000F0BAFD706805F03DF9009502460B462E
:105AA000204600F0BEFD2046094900F0ADFDB0687B
:105AB00005F030F9009502460B46204600F0B1FD96
:105AC0007CBD00BF5C90FF1F683E01006C3E010082
:105AD000703E010073B5224C03460E46204619461F
